{
  "address": "0xA66271316d7bDD675eCd2bd1c6a89041B42Bb121",
  "abi": [
    {
      "inputs": [
        {
          "internalType": "address",
          "name": "vrfCoordinatorV2",
          "type": "address"
        },
        {
          "internalType": "uint256",
          "name": "entranceFee",
          "type": "uint256"
        },
        {
          "internalType": "bytes32",
          "name": "gasLane",
          "type": "bytes32"
        },
        {
          "internalType": "uint64",
          "name": "subscriptionId",
          "type": "uint64"
        },
        {
          "internalType": "uint32",
          "name": "callbackGasLimit",
          "type": "uint32"
        },
        {
          "internalType": "uint256",
          "name": "interval",
          "type": "uint256"
        }
      ],
      "stateMutability": "nonpayable",
      "type": "constructor"
    },
    {
      "inputs": [
        {
          "internalType": "address",
          "name": "have",
          "type": "address"
        },
        {
          "internalType": "address",
          "name": "want",
          "type": "address"
        }
      ],
      "name": "OnlyCoordinatorCanFulfill",
      "type": "error"
    },
    {
      "inputs": [],
      "name": "Raffle__NotEnoughETH",
      "type": "error"
    },
    {
      "inputs": [],
      "name": "Raffle__NotOpen",
      "type": "error"
    },
    {
      "inputs": [],
      "name": "Raffle__NotOwner",
      "type": "error"
    },
    {
      "inputs": [],
      "name": "Raffle__TransferFailed",
      "type": "error"
    },
    {
      "inputs": [
        {
          "internalType": "uint256",
          "name": "currentBalance",
          "type": "uint256"
        },
        {
          "internalType": "uint256",
          "name": "players",
          "type": "uint256"
        },
        {
          "internalType": "uint256",
          "name": "raffleState",
          "type": "uint256"
        }
      ],
      "name": "Raffle__UpKeepNotNeeded",
      "type": "error"
    },
    {
      "anonymous": false,
      "inputs": [
        {
          "indexed": true,
          "internalType": "address",
          "name": "player",
          "type": "address"
        }
      ],
      "name": "RaffleEnter",
      "type": "event"
    },
    {
      "anonymous": false,
      "inputs": [
        {
          "indexed": true,
          "internalType": "uint256",
          "name": "requestId",
          "type": "uint256"
        }
      ],
      "name": "RequestedRaffleWinner",
      "type": "event"
    },
    {
      "anonymous": false,
      "inputs": [
        {
          "indexed": true,
          "internalType": "address",
          "name": "winner",
          "type": "address"
        }
      ],
      "name": "WinnerPicked",
      "type": "event"
    },
    {
      "stateMutability": "payable",
      "type": "fallback"
    },
    {
      "inputs": [
        {
          "internalType": "uint256",
          "name": "interval",
          "type": "uint256"
        }
      ],
      "name": "changeInterval",
      "outputs": [],
      "stateMutability": "nonpayable",
      "type": "function"
    },
    {
      "inputs": [
        {
          "internalType": "bytes",
          "name": "",
          "type": "bytes"
        }
      ],
      "name": "checkUpkeep",
      "outputs": [
        {
          "internalType": "bool",
          "name": "upkeepNeeded",
          "type": "bool"
        },
        {
          "internalType": "bytes",
          "name": "",
          "type": "bytes"
        }
      ],
      "stateMutability": "view",
      "type": "function"
    },
    {
      "inputs": [],
      "name": "enterRaffle",
      "outputs": [],
      "stateMutability": "payable",
      "type": "function"
    },
    {
      "inputs": [],
      "name": "getCallbackGasLimit",
      "outputs": [
        {
          "internalType": "uint32",
          "name": "",
          "type": "uint32"
        }
      ],
      "stateMutability": "view",
      "type": "function"
    },
    {
      "inputs": [],
      "name": "getEntranceFee",
      "outputs": [
        {
          "internalType": "uint256",
          "name": "",
          "type": "uint256"
        }
      ],
      "stateMutability": "view",
      "type": "function"
    },
    {
      "inputs": [],
      "name": "getGasLane",
      "outputs": [
        {
          "internalType": "bytes32",
          "name": "",
          "type": "bytes32"
        }
      ],
      "stateMutability": "view",
      "type": "function"
    },
    {
      "inputs": [],
      "name": "getInterval",
      "outputs": [
        {
          "internalType": "uint256",
          "name": "",
          "type": "uint256"
        }
      ],
      "stateMutability": "view",
      "type": "function"
    },
    {
      "inputs": [],
      "name": "getLatestTimeStamp",
      "outputs": [
        {
          "internalType": "uint256",
          "name": "",
          "type": "uint256"
        }
      ],
      "stateMutability": "view",
      "type": "function"
    },
    {
      "inputs": [],
      "name": "getNumWords",
      "outputs": [
        {
          "internalType": "uint256",
          "name": "",
          "type": "uint256"
        }
      ],
      "stateMutability": "pure",
      "type": "function"
    },
    {
      "inputs": [
        {
          "internalType": "uint256",
          "name": "index",
          "type": "uint256"
        }
      ],
      "name": "getPlayer",
      "outputs": [
        {
          "internalType": "address",
          "name": "",
          "type": "address"
        }
      ],
      "stateMutability": "view",
      "type": "function"
    },
    {
      "inputs": [],
      "name": "getPlayerCount",
      "outputs": [
        {
          "internalType": "uint256",
          "name": "",
          "type": "uint256"
        }
      ],
      "stateMutability": "view",
      "type": "function"
    },
    {
      "inputs": [],
      "name": "getRaffleState",
      "outputs": [
        {
          "internalType": "enum Raffle.RaffleState",
          "name": "",
          "type": "uint8"
        }
      ],
      "stateMutability": "view",
      "type": "function"
    },
    {
      "inputs": [],
      "name": "getRecentWinner",
      "outputs": [
        {
          "internalType": "address",
          "name": "",
          "type": "address"
        }
      ],
      "stateMutability": "view",
      "type": "function"
    },
    {
      "inputs": [],
      "name": "getRequestConfirmations",
      "outputs": [
        {
          "internalType": "uint16",
          "name": "",
          "type": "uint16"
        }
      ],
      "stateMutability": "pure",
      "type": "function"
    },
    {
      "inputs": [],
      "name": "getVRFCoordinatorV2",
      "outputs": [
        {
          "internalType": "contract VRFCoordinatorV2Interface",
          "name": "",
          "type": "address"
        }
      ],
      "stateMutability": "view",
      "type": "function"
    },
    {
      "inputs": [
        {
          "internalType": "bytes",
          "name": "",
          "type": "bytes"
        }
      ],
      "name": "performUpkeep",
      "outputs": [],
      "stateMutability": "nonpayable",
      "type": "function"
    },
    {
      "inputs": [
        {
          "internalType": "uint256",
          "name": "requestId",
          "type": "uint256"
        },
        {
          "internalType": "uint256[]",
          "name": "randomWords",
          "type": "uint256[]"
        }
      ],
      "name": "rawFulfillRandomWords",
      "outputs": [],
      "stateMutability": "nonpayable",
      "type": "function"
    },
    {
      "stateMutability": "payable",
      "type": "receive"
    }
  ],
  "transactionHash": "0xe630f64a712df49256668124b4c8042ed1403829a466b3d57e04a545794b7510",
  "args": [
    "0x2ca8e0c643bde4c2e08ab1fa0da3401adad7734d",
    "10000000000000000",
    "0x79d3d8832d904592c0bf9818b621522c988bb8b0c05cdc3b15aea1b6e8db0c15",
    "7327",
    "500000",
    30
  ],
  "numDeployments": 3,
  "solcInputHash": "2916419598e72e7b785b1307eb78da42",
  "bytecode": "0x6101606040523480156200001257600080fd5b5060405162001b7938038062001b798339818101604052810190620000389190620002c7565b858073ffffffffffffffffffffffffffffffffffffffff1660808173ffffffffffffffffffffffffffffffffffffffff1681525050503373ffffffffffffffffffffffffffffffffffffffff1660a08173ffffffffffffffffffffffffffffffffffffffff16815250508460c081815250508573ffffffffffffffffffffffffffffffffffffffff1660e08173ffffffffffffffffffffffffffffffffffffffff16815250508361010081815250508267ffffffffffffffff166101208167ffffffffffffffff16815250508163ffffffff166101408163ffffffff16815250506000600160146101000a81548160ff0219169083600181111562000142576200014162000363565b5b0217905550426002819055508060038190555050505050505062000392565b600080fd5b600073ffffffffffffffffffffffffffffffffffffffff82169050919050565b6000620001938262000166565b9050919050565b620001a58162000186565b8114620001b157600080fd5b50565b600081519050620001c5816200019a565b92915050565b6000819050919050565b620001e081620001cb565b8114620001ec57600080fd5b50565b6000815190506200020081620001d5565b92915050565b6000819050919050565b6200021b8162000206565b81146200022757600080fd5b50565b6000815190506200023b8162000210565b92915050565b600067ffffffffffffffff82169050919050565b620002608162000241565b81146200026c57600080fd5b50565b600081519050620002808162000255565b92915050565b600063ffffffff82169050919050565b620002a18162000286565b8114620002ad57600080fd5b50565b600081519050620002c18162000296565b92915050565b60008060008060008060c08789031215620002e757620002e662000161565b5b6000620002f789828a01620001b4565b96505060206200030a89828a01620001ef565b95505060406200031d89828a016200022a565b94505060606200033089828a016200026f565b93505060806200034389828a01620002b0565b92505060a06200035689828a01620001ef565b9150509295509295509295565b7f4e487b7100000000000000000000000000000000000000000000000000000000600052602160045260246000fd5b60805160a05160c05160e05161010051610120516101405161176962000410600039600081816108af0152610b430152600061088c01526000818161086b0152610b0f015260008181610754015261082f015260008181610547015261064b015260006109a901526000818161068801526106dc01526117696000f3fe6080604052600436106101025760003560e01c806353a2c19a1161009557806391ad27b41161006457806391ad27b4146103ef578063c19dd76b1461041a578063c2e5220614610445578063de8be8e714610470578063e55ae4e81461049b57610183565b806353a2c19a146103325780635f1b0fd81461035d57806363c75607146103885780636e04ff0d146103b157610183565b8063320229eb116100d1578063320229eb1461028857806340293df5146102b35780634585e33b146102de578063473f1ddc1461030757610183565b806309bc33a7146101ff578063115cbaf51461022a5780631fe543e3146102555780632cfcc5391461027e57610183565b366101835760003373ffffffffffffffffffffffffffffffffffffffff163460405161012d90610eb7565b60006040518083038185875af1925050503d806000811461016a576040519150601f19603f3d011682016040523d82523d6000602084013e61016f565b606091505b5050905080610181576101806104d8565b5b005b60003373ffffffffffffffffffffffffffffffffffffffff16346040516101a990610eb7565b60006040518083038185875af1925050503d80600081146101e6576040519150601f19603f3d011682016040523d82523d6000602084013e6101eb565b606091505b50509050806101fd576101fc6104d8565b5b005b34801561020b57600080fd5b50610214610647565b6040516102219190610ee5565b60405180910390f35b34801561023657600080fd5b5061023f61066f565b60405161024c9190610f77565b60405180910390f35b34801561026157600080fd5b5061027c6004803603810190610277919061112b565b610686565b005b6102866104d8565b005b34801561029457600080fd5b5061029d610746565b6040516102aa9190610ee5565b60405180910390f35b3480156102bf57600080fd5b506102c8610750565b6040516102d59190611206565b60405180910390f35b3480156102ea57600080fd5b50610305600480360381019061030091906112d6565b610778565b005b34801561031357600080fd5b5061031c610967565b6040516103299190611340565b60405180910390f35b34801561033e57600080fd5b50610347610991565b6040516103549190610ee5565b60405180910390f35b34801561036957600080fd5b5061037261099e565b60405161037f9190611378565b60405180910390f35b34801561039457600080fd5b506103af60048036038101906103aa9190611393565b6109a7565b005b3480156103bd57600080fd5b506103d860048036038101906103d391906112d6565b610a73565b6040516103e692919061145a565b60405180910390f35b3480156103fb57600080fd5b50610404610b01565b6040516104119190610ee5565b60405180910390f35b34801561042657600080fd5b5061042f610b0b565b60405161043c91906114a3565b60405180910390f35b34801561045157600080fd5b5061045a610b33565b6040516104679190610ee5565b60405180910390f35b34801561047c57600080fd5b50610485610b3f565b60405161049291906114dd565b60405180910390f35b3480156104a757600080fd5b506104c260048036038101906104bd9190611393565b610b67565b6040516104cf9190611340565b60405180910390f35b600060018111156104ec576104eb610f00565b5b600160149054906101000a900460ff16600181111561050e5761050d610f00565b5b14610545576040517f1425571c00000000000000000000000000000000000000000000000000000000815260040160405180910390fd5b7f000000000000000000000000000000000000000000000000000000000000000034101561059f576040517f9894879b00000000000000000000000000000000000000000000000000000000815260040160405180910390fd5b6000339080600181540180825580915050600190039060005260206000200160009091909190916101000a81548173ffffffffffffffffffffffffffffffffffffffff021916908373ffffffffffffffffffffffffffffffffffffffff1602179055503373ffffffffffffffffffffffffffffffffffffffff167f0805e1d667bddb8a95f0f09880cf94f403fb596ce79928d9f29b74203ba284d460405160405180910390a2565b60007f0000000000000000000000000000000000000000000000000000000000000000905090565b6000600160149054906101000a900460ff16905090565b7f000000000000000000000000000000000000000000000000000000000000000073ffffffffffffffffffffffffffffffffffffffff163373ffffffffffffffffffffffffffffffffffffffff161461073857337f00000000000000000000000000000000000000000000000000000000000000006040517f1cf993f400000000000000000000000000000000000000000000000000000000815260040161072f9291906114f8565b60405180910390fd5b6107428282610bae565b5050565b6000600254905090565b60007f0000000000000000000000000000000000000000000000000000000000000000905090565b600061079260405180602001604052806000815250610a73565b509050806108015747600080549050600160149054906101000a900460ff1660018111156107c3576107c2610f00565b5b6040517f3a8d60860000000000000000000000000000000000000000000000000000000081526004016107f893929190611521565b60405180910390fd5b60018060146101000a81548160ff0219169083600181111561082657610825610f00565b5b021790555060007f000000000000000000000000000000000000000000000000000000000000000073ffffffffffffffffffffffffffffffffffffffff16635d3b1d307f00000000000000000000000000000000000000000000000000000000000000007f000000000000000000000000000000000000000000000000000000000000000060037f000000000000000000000000000000000000000000000000000000000000000060016040518663ffffffff1660e01b81526004016108f09594939291906115ac565b6020604051808303816000875af115801561090f573d6000803e3d6000fd5b505050506040513d601f19601f820116820180604052508101906109339190611614565b9050807fcd6e45c8998311cab7e9d4385596cac867e20a0587194b954fa3a731c93ce78b60405160405180910390a2505050565b6000600160009054906101000a900473ffffffffffffffffffffffffffffffffffffffff16905090565b6000600161ffff16905090565b60006003905090565b7f000000000000000000000000000000000000000000000000000000000000000073ffffffffffffffffffffffffffffffffffffffff163373ffffffffffffffffffffffffffffffffffffffff1614610a2c576040517f51ed287900000000000000000000000000000000000000000000000000000000815260040160405180910390fd5b6000610a4660405180602001604052806000815250610a73565b5090508015610a6857610a6760405180602001604052806000815250610778565b5b816003819055505050565b600060606000806001811115610a8c57610a8b610f00565b5b600160149054906101000a900460ff166001811115610aae57610aad610f00565b5b149050600060035460025442610ac49190611670565b11905060008060008054905011905060008047119050838015610ae45750825b8015610aed5750815b8015610af65750805b955050505050915091565b6000600354905090565b60007f0000000000000000000000000000000000000000000000000000000000000000905090565b60008080549050905090565b60007f0000000000000000000000000000000000000000000000000000000000000000905090565b6000808281548110610b7c57610b7b6116a4565b5b9060005260206000200160009054906101000a900473ffffffffffffffffffffffffffffffffffffffff169050919050565b6000808054905082600081518110610bc957610bc86116a4565b5b6020026020010151610bdb9190611702565b90506000808281548110610bf257610bf16116a4565b5b9060005260206000200160009054906101000a900473ffffffffffffffffffffffffffffffffffffffff16905080600160006101000a81548173ffffffffffffffffffffffffffffffffffffffff021916908373ffffffffffffffffffffffffffffffffffffffff16021790555060008173ffffffffffffffffffffffffffffffffffffffff1647604051610c8690610eb7565b60006040518083038185875af1925050503d8060008114610cc3576040519150601f19603f3d011682016040523d82523d6000602084013e610cc8565b606091505b5050905080610d03576040517fa1d04b3900000000000000000000000000000000000000000000000000000000815260040160405180910390fd5b6000600160146101000a81548160ff02191690836001811115610d2957610d28610f00565b5b0217905550600067ffffffffffffffff811115610d4957610d48610fe8565b5b604051908082528060200260200182016040528015610d775781602001602082028036833780820191505090505b5060009080519060200190610d8d929190610ddf565b50426002819055508173ffffffffffffffffffffffffffffffffffffffff167f5b690ec4a06fe979403046eaeea5b3ce38524683c3001f662c8b5a829632f7df60405160405180910390a25050505050565b828054828255906000526020600020908101928215610e58579160200282015b82811115610e575782518260006101000a81548173ffffffffffffffffffffffffffffffffffffffff021916908373ffffffffffffffffffffffffffffffffffffffff16021790555091602001919060010190610dff565b5b509050610e659190610e69565b5090565b5b80821115610e82576000816000905550600101610e6a565b5090565b600081905092915050565b50565b6000610ea1600083610e86565b9150610eac82610e91565b600082019050919050565b6000610ec282610e94565b9150819050919050565b6000819050919050565b610edf81610ecc565b82525050565b6000602082019050610efa6000830184610ed6565b92915050565b7f4e487b7100000000000000000000000000000000000000000000000000000000600052602160045260246000fd5b60028110610f4057610f3f610f00565b5b50565b6000819050610f5182610f2f565b919050565b6000610f6182610f43565b9050919050565b610f7181610f56565b82525050565b6000602082019050610f8c6000830184610f68565b92915050565b6000604051905090565b600080fd5b600080fd5b610faf81610ecc565b8114610fba57600080fd5b50565b600081359050610fcc81610fa6565b92915050565b600080fd5b6000601f19601f8301169050919050565b7f4e487b7100000000000000000000000000000000000000000000000000000000600052604160045260246000fd5b61102082610fd7565b810181811067ffffffffffffffff8211171561103f5761103e610fe8565b5b80604052505050565b6000611052610f92565b905061105e8282611017565b919050565b600067ffffffffffffffff82111561107e5761107d610fe8565b5b602082029050602081019050919050565b600080fd5b60006110a76110a284611063565b611048565b905080838252602082019050602084028301858111156110ca576110c961108f565b5b835b818110156110f357806110df8882610fbd565b8452602084019350506020810190506110cc565b5050509392505050565b600082601f83011261111257611111610fd2565b5b8135611122848260208601611094565b91505092915050565b6000806040838503121561114257611141610f9c565b5b600061115085828601610fbd565b925050602083013567ffffffffffffffff81111561117157611170610fa1565b5b61117d858286016110fd565b9150509250929050565b600073ffffffffffffffffffffffffffffffffffffffff82169050919050565b6000819050919050565b60006111cc6111c76111c284611187565b6111a7565b611187565b9050919050565b60006111de826111b1565b9050919050565b60006111f0826111d3565b9050919050565b611200816111e5565b82525050565b600060208201905061121b60008301846111f7565b92915050565b600080fd5b600067ffffffffffffffff82111561124157611240610fe8565b5b61124a82610fd7565b9050602081019050919050565b82818337600083830152505050565b600061127961127484611226565b611048565b90508281526020810184848401111561129557611294611221565b5b6112a0848285611257565b509392505050565b600082601f8301126112bd576112bc610fd2565b5b81356112cd848260208601611266565b91505092915050565b6000602082840312156112ec576112eb610f9c565b5b600082013567ffffffffffffffff81111561130a57611309610fa1565b5b611316848285016112a8565b91505092915050565b600061132a82611187565b9050919050565b61133a8161131f565b82525050565b60006020820190506113556000830184611331565b92915050565b600061ffff82169050919050565b6113728161135b565b82525050565b600060208201905061138d6000830184611369565b92915050565b6000602082840312156113a9576113a8610f9c565b5b60006113b784828501610fbd565b91505092915050565b60008115159050919050565b6113d5816113c0565b82525050565b600081519050919050565b600082825260208201905092915050565b60005b838110156114155780820151818401526020810190506113fa565b60008484015250505050565b600061142c826113db565b61143681856113e6565b93506114468185602086016113f7565b61144f81610fd7565b840191505092915050565b600060408201905061146f60008301856113cc565b81810360208301526114818184611421565b90509392505050565b6000819050919050565b61149d8161148a565b82525050565b60006020820190506114b86000830184611494565b92915050565b600063ffffffff82169050919050565b6114d7816114be565b82525050565b60006020820190506114f260008301846114ce565b92915050565b600060408201905061150d6000830185611331565b61151a6020830184611331565b9392505050565b60006060820190506115366000830186610ed6565b6115436020830185610ed6565b6115506040830184610ed6565b949350505050565b600067ffffffffffffffff82169050919050565b61157581611558565b82525050565b600061159661159161158c8461135b565b6111a7565b6114be565b9050919050565b6115a68161157b565b82525050565b600060a0820190506115c16000830188611494565b6115ce602083018761156c565b6115db6040830186611369565b6115e860608301856114ce565b6115f5608083018461159d565b9695505050505050565b60008151905061160e81610fa6565b92915050565b60006020828403121561162a57611629610f9c565b5b6000611638848285016115ff565b91505092915050565b7f4e487b7100000000000000000000000000000000000000000000000000000000600052601160045260246000fd5b600061167b82610ecc565b915061168683610ecc565b925082820390508181111561169e5761169d611641565b5b92915050565b7f4e487b7100000000000000000000000000000000000000000000000000000000600052603260045260246000fd5b7f4e487b7100000000000000000000000000000000000000000000000000000000600052601260045260246000fd5b600061170d82610ecc565b915061171883610ecc565b925082611728576117276116d3565b5b82820690509291505056fea264697066735822122024f610d04c1b0640cdd2d480a4478411d56a645e0eff3a0789c9c9dbbeed1ce064736f6c63430008110033",
  "devdoc": {
    "kind": "dev",
    "methods": {
      "checkUpkeep(bytes)": {
        "details": "Chainlink automation calls this function and looks for `upkeepNeeded` to return true The following conditions needs to be satisfied for lottery to trigger: 1. Lottery interval should have passed 2. The lottery should have atleast 1 player, and have some ETH 3. Our subscription is funded with LINK 4. The lottery should be in an \"open\" state"
      },
      "enterRaffle()": {
        "details": "A player is added to the lottery in this function 1. The lottery should be in OPEN state to proceed further 2. Ether value should be greater or equal to entraceFee 3. Player is pushed to players array Event is emitted"
      },
      "performUpkeep(bytes)": {
        "details": "performUpKeep is function called by chainlink automation when `upkeepNeeded` is true 1. Again we explicitly run checkUpKeep to now allow others to run the function without passing the conditions 2. The random number is requested by passing required parameters, the process is done in 2 transactions 3. Event is emitted"
      }
    },
    "version": 1
  },
  "userdoc": {
    "kind": "user",
    "methods": {},
    "version": 1
  },
  "storageLayout": {
    "storage": [
      {
        "astId": 244,
        "contract": "contracts/Raffle.sol:Raffle",
        "label": "s_players",
        "offset": 0,
        "slot": "0",
        "type": "t_array(t_address_payable)dyn_storage"
      },
      {
        "astId": 263,
        "contract": "contracts/Raffle.sol:Raffle",
        "label": "s_recentWinner",
        "offset": 0,
        "slot": "1",
        "type": "t_address"
      },
      {
        "astId": 266,
        "contract": "contracts/Raffle.sol:Raffle",
        "label": "s_raffleState",
        "offset": 20,
        "slot": "1",
        "type": "t_enum(RaffleState)239"
      },
      {
        "astId": 268,
        "contract": "contracts/Raffle.sol:Raffle",
        "label": "s_lastTimeStamp",
        "offset": 0,
        "slot": "2",
        "type": "t_uint256"
      },
      {
        "astId": 270,
        "contract": "contracts/Raffle.sol:Raffle",
        "label": "i_interval",
        "offset": 0,
        "slot": "3",
        "type": "t_uint256"
      }
    ],
    "types": {
      "t_address": {
        "encoding": "inplace",
        "label": "address",
        "numberOfBytes": "20"
      },
      "t_address_payable": {
        "encoding": "inplace",
        "label": "address payable",
        "numberOfBytes": "20"
      },
      "t_array(t_address_payable)dyn_storage": {
        "base": "t_address_payable",
        "encoding": "dynamic_array",
        "label": "address payable[]",
        "numberOfBytes": "32"
      },
      "t_enum(RaffleState)239": {
        "encoding": "inplace",
        "label": "enum Raffle.RaffleState",
        "numberOfBytes": "1"
      },
      "t_uint256": {
        "encoding": "inplace",
        "label": "uint256",
        "numberOfBytes": "32"
      }
    }
  }
}