{
  "address": "0xFb18c13D216D8917431eCBa7c791a16CfB143140",
  "abi": [
    {
      "inputs": [
        {
          "internalType": "address",
          "name": "vrfCoordinatorV2",
          "type": "address"
        },
        {
          "internalType": "uint256",
          "name": "entranceFee",
          "type": "uint256"
        },
        {
          "internalType": "bytes32",
          "name": "gasLane",
          "type": "bytes32"
        },
        {
          "internalType": "uint64",
          "name": "subscriptionId",
          "type": "uint64"
        },
        {
          "internalType": "uint32",
          "name": "callbackGasLimit",
          "type": "uint32"
        },
        {
          "internalType": "uint256",
          "name": "interval",
          "type": "uint256"
        }
      ],
      "stateMutability": "nonpayable",
      "type": "constructor"
    },
    {
      "inputs": [
        {
          "internalType": "address",
          "name": "have",
          "type": "address"
        },
        {
          "internalType": "address",
          "name": "want",
          "type": "address"
        }
      ],
      "name": "OnlyCoordinatorCanFulfill",
      "type": "error"
    },
    {
      "inputs": [],
      "name": "Raffle__NotEnoughETH",
      "type": "error"
    },
    {
      "inputs": [],
      "name": "Raffle__NotOpen",
      "type": "error"
    },
    {
      "inputs": [],
      "name": "Raffle__NotOwner",
      "type": "error"
    },
    {
      "inputs": [],
      "name": "Raffle__TransferFailed",
      "type": "error"
    },
    {
      "inputs": [
        {
          "internalType": "uint256",
          "name": "currentBalance",
          "type": "uint256"
        },
        {
          "internalType": "uint256",
          "name": "players",
          "type": "uint256"
        },
        {
          "internalType": "uint256",
          "name": "raffleState",
          "type": "uint256"
        }
      ],
      "name": "Raffle__UpKeepNotNeeded",
      "type": "error"
    },
    {
      "anonymous": false,
      "inputs": [
        {
          "indexed": true,
          "internalType": "address",
          "name": "player",
          "type": "address"
        }
      ],
      "name": "RaffleEnter",
      "type": "event"
    },
    {
      "anonymous": false,
      "inputs": [
        {
          "indexed": true,
          "internalType": "uint256",
          "name": "requestId",
          "type": "uint256"
        }
      ],
      "name": "RequestedRaffleWinner",
      "type": "event"
    },
    {
      "anonymous": false,
      "inputs": [
        {
          "indexed": true,
          "internalType": "address",
          "name": "winner",
          "type": "address"
        }
      ],
      "name": "WinnerPicked",
      "type": "event"
    },
    {
      "stateMutability": "payable",
      "type": "fallback"
    },
    {
      "inputs": [
        {
          "internalType": "uint256",
          "name": "interval",
          "type": "uint256"
        }
      ],
      "name": "changeInterval",
      "outputs": [],
      "stateMutability": "nonpayable",
      "type": "function"
    },
    {
      "inputs": [
        {
          "internalType": "bytes",
          "name": "",
          "type": "bytes"
        }
      ],
      "name": "checkUpkeep",
      "outputs": [
        {
          "internalType": "bool",
          "name": "upkeepNeeded",
          "type": "bool"
        },
        {
          "internalType": "bytes",
          "name": "",
          "type": "bytes"
        }
      ],
      "stateMutability": "view",
      "type": "function"
    },
    {
      "inputs": [],
      "name": "enterRaffle",
      "outputs": [],
      "stateMutability": "payable",
      "type": "function"
    },
    {
      "inputs": [],
      "name": "getCallbackGasLimit",
      "outputs": [
        {
          "internalType": "uint32",
          "name": "",
          "type": "uint32"
        }
      ],
      "stateMutability": "view",
      "type": "function"
    },
    {
      "inputs": [],
      "name": "getEntranceFee",
      "outputs": [
        {
          "internalType": "uint256",
          "name": "",
          "type": "uint256"
        }
      ],
      "stateMutability": "view",
      "type": "function"
    },
    {
      "inputs": [],
      "name": "getGasLane",
      "outputs": [
        {
          "internalType": "bytes32",
          "name": "",
          "type": "bytes32"
        }
      ],
      "stateMutability": "view",
      "type": "function"
    },
    {
      "inputs": [],
      "name": "getInterval",
      "outputs": [
        {
          "internalType": "uint256",
          "name": "",
          "type": "uint256"
        }
      ],
      "stateMutability": "view",
      "type": "function"
    },
    {
      "inputs": [],
      "name": "getLatestTimeStamp",
      "outputs": [
        {
          "internalType": "uint256",
          "name": "",
          "type": "uint256"
        }
      ],
      "stateMutability": "view",
      "type": "function"
    },
    {
      "inputs": [],
      "name": "getNumWords",
      "outputs": [
        {
          "internalType": "uint256",
          "name": "",
          "type": "uint256"
        }
      ],
      "stateMutability": "pure",
      "type": "function"
    },
    {
      "inputs": [
        {
          "internalType": "uint256",
          "name": "index",
          "type": "uint256"
        }
      ],
      "name": "getPlayer",
      "outputs": [
        {
          "internalType": "address",
          "name": "",
          "type": "address"
        }
      ],
      "stateMutability": "view",
      "type": "function"
    },
    {
      "inputs": [],
      "name": "getPlayerCount",
      "outputs": [
        {
          "internalType": "uint256",
          "name": "",
          "type": "uint256"
        }
      ],
      "stateMutability": "view",
      "type": "function"
    },
    {
      "inputs": [],
      "name": "getRaffleState",
      "outputs": [
        {
          "internalType": "enum Raffle.RaffleState",
          "name": "",
          "type": "uint8"
        }
      ],
      "stateMutability": "view",
      "type": "function"
    },
    {
      "inputs": [],
      "name": "getRecentWinner",
      "outputs": [
        {
          "internalType": "address",
          "name": "",
          "type": "address"
        }
      ],
      "stateMutability": "view",
      "type": "function"
    },
    {
      "inputs": [],
      "name": "getRequestConfirmations",
      "outputs": [
        {
          "internalType": "uint16",
          "name": "",
          "type": "uint16"
        }
      ],
      "stateMutability": "pure",
      "type": "function"
    },
    {
      "inputs": [],
      "name": "getVRFCoordinatorV2",
      "outputs": [
        {
          "internalType": "contract VRFCoordinatorV2Interface",
          "name": "",
          "type": "address"
        }
      ],
      "stateMutability": "view",
      "type": "function"
    },
    {
      "inputs": [
        {
          "internalType": "address",
          "name": "player",
          "type": "address"
        }
      ],
      "name": "isPlayerEntered",
      "outputs": [
        {
          "internalType": "bool",
          "name": "",
          "type": "bool"
        }
      ],
      "stateMutability": "view",
      "type": "function"
    },
    {
      "inputs": [
        {
          "internalType": "bytes",
          "name": "",
          "type": "bytes"
        }
      ],
      "name": "performUpkeep",
      "outputs": [],
      "stateMutability": "nonpayable",
      "type": "function"
    },
    {
      "inputs": [
        {
          "internalType": "uint256",
          "name": "requestId",
          "type": "uint256"
        },
        {
          "internalType": "uint256[]",
          "name": "randomWords",
          "type": "uint256[]"
        }
      ],
      "name": "rawFulfillRandomWords",
      "outputs": [],
      "stateMutability": "nonpayable",
      "type": "function"
    },
    {
      "stateMutability": "payable",
      "type": "receive"
    }
  ],
  "transactionHash": "0xac24c66f1c8ab04d8c4c56fe8a800e9e121aba75a502e1521f03a3b0674c44f6",
  "args": [
    "0x2ca8e0c643bde4c2e08ab1fa0da3401adad7734d",
    "10000000000000000",
    "0x79d3d8832d904592c0bf9818b621522c988bb8b0c05cdc3b15aea1b6e8db0c15",
    "7327",
    "500000",
    30
  ],
  "numDeployments": 4,
  "solcInputHash": "f16b19f6cdeeb6ec63a5c715715f2265",
  "bytecode": "0x6101606040523480156200001257600080fd5b5060405162001d8c38038062001d8c8339818101604052810190620000389190620002c7565b858073ffffffffffffffffffffffffffffffffffffffff1660808173ffffffffffffffffffffffffffffffffffffffff1681525050503373ffffffffffffffffffffffffffffffffffffffff1660a08173ffffffffffffffffffffffffffffffffffffffff16815250508460c081815250508573ffffffffffffffffffffffffffffffffffffffff1660e08173ffffffffffffffffffffffffffffffffffffffff16815250508361010081815250508267ffffffffffffffff166101208167ffffffffffffffff16815250508163ffffffff166101408163ffffffff16815250506000600160146101000a81548160ff0219169083600181111562000142576200014162000363565b5b0217905550426002819055508060038190555050505050505062000392565b600080fd5b600073ffffffffffffffffffffffffffffffffffffffff82169050919050565b6000620001938262000166565b9050919050565b620001a58162000186565b8114620001b157600080fd5b50565b600081519050620001c5816200019a565b92915050565b6000819050919050565b620001e081620001cb565b8114620001ec57600080fd5b50565b6000815190506200020081620001d5565b92915050565b6000819050919050565b6200021b8162000206565b81146200022757600080fd5b50565b6000815190506200023b8162000210565b92915050565b600067ffffffffffffffff82169050919050565b620002608162000241565b81146200026c57600080fd5b50565b600081519050620002808162000255565b92915050565b600063ffffffff82169050919050565b620002a18162000286565b8114620002ad57600080fd5b50565b600081519050620002c18162000296565b92915050565b60008060008060008060c08789031215620002e757620002e662000161565b5b6000620002f789828a01620001b4565b96505060206200030a89828a01620001ef565b95505060406200031d89828a016200022a565b94505060606200033089828a016200026f565b93505060806200034389828a01620002b0565b92505060a06200035689828a01620001ef565b9150509295509295509295565b7f4e487b7100000000000000000000000000000000000000000000000000000000600052602160045260246000fd5b60805160a05160c05160e05161010051610120516101405161197c62000410600039600081816108f70152610c9a015260006108d40152600081816108b30152610b5701526000818161079c015261087701526000818161058f0152610693015260006109f10152600081816106d00152610724015261197c6000f3fe60806040526004361061010d5760003560e01c80635f1b0fd811610095578063c19dd76b11610064578063c19dd76b14610425578063c2e5220614610450578063d604e29b1461047b578063de8be8e7146104b8578063e55ae4e8146104e35761018e565b80635f1b0fd81461036857806363c75607146103935780636e04ff0d146103bc57806391ad27b4146103fa5761018e565b8063320229eb116100dc578063320229eb1461029357806340293df5146102be5780634585e33b146102e9578063473f1ddc1461031257806353a2c19a1461033d5761018e565b806309bc33a71461020a578063115cbaf5146102355780631fe543e3146102605780632cfcc539146102895761018e565b3661018e5760003373ffffffffffffffffffffffffffffffffffffffff16346040516101389061100e565b60006040518083038185875af1925050503d8060008114610175576040519150601f19603f3d011682016040523d82523d6000602084013e61017a565b606091505b505090508061018c5761018b610520565b5b005b60003373ffffffffffffffffffffffffffffffffffffffff16346040516101b49061100e565b60006040518083038185875af1925050503d80600081146101f1576040519150601f19603f3d011682016040523d82523d6000602084013e6101f6565b606091505b505090508061020857610207610520565b5b005b34801561021657600080fd5b5061021f61068f565b60405161022c919061103c565b60405180910390f35b34801561024157600080fd5b5061024a6106b7565b60405161025791906110ce565b60405180910390f35b34801561026c57600080fd5b5061028760048036038101906102829190611282565b6106ce565b005b610291610520565b005b34801561029f57600080fd5b506102a861078e565b6040516102b5919061103c565b60405180910390f35b3480156102ca57600080fd5b506102d3610798565b6040516102e0919061135d565b60405180910390f35b3480156102f557600080fd5b50610310600480360381019061030b919061142d565b6107c0565b005b34801561031e57600080fd5b506103276109af565b6040516103349190611497565b60405180910390f35b34801561034957600080fd5b506103526109d9565b60405161035f919061103c565b60405180910390f35b34801561037457600080fd5b5061037d6109e6565b60405161038a91906114cf565b60405180910390f35b34801561039f57600080fd5b506103ba60048036038101906103b591906114ea565b6109ef565b005b3480156103c857600080fd5b506103e360048036038101906103de919061142d565b610abb565b6040516103f19291906115b1565b60405180910390f35b34801561040657600080fd5b5061040f610b49565b60405161041c919061103c565b60405180910390f35b34801561043157600080fd5b5061043a610b53565b60405161044791906115fa565b60405180910390f35b34801561045c57600080fd5b50610465610b7b565b604051610472919061103c565b60405180910390f35b34801561048757600080fd5b506104a2600480360381019061049d9190611641565b610b87565b6040516104af919061166e565b60405180910390f35b3480156104c457600080fd5b506104cd610c96565b6040516104da91906116a8565b60405180910390f35b3480156104ef57600080fd5b5061050a600480360381019061050591906114ea565b610cbe565b6040516105179190611497565b60405180910390f35b6000600181111561053457610533611057565b5b600160149054906101000a900460ff16600181111561055657610555611057565b5b1461058d576040517f1425571c00000000000000000000000000000000000000000000000000000000815260040160405180910390fd5b7f00000000000000000000000000000000000000000000000000000000000000003410156105e7576040517f9894879b00000000000000000000000000000000000000000000000000000000815260040160405180910390fd5b6000339080600181540180825580915050600190039060005260206000200160009091909190916101000a81548173ffffffffffffffffffffffffffffffffffffffff021916908373ffffffffffffffffffffffffffffffffffffffff1602179055503373ffffffffffffffffffffffffffffffffffffffff167f0805e1d667bddb8a95f0f09880cf94f403fb596ce79928d9f29b74203ba284d460405160405180910390a2565b60007f0000000000000000000000000000000000000000000000000000000000000000905090565b6000600160149054906101000a900460ff16905090565b7f000000000000000000000000000000000000000000000000000000000000000073ffffffffffffffffffffffffffffffffffffffff163373ffffffffffffffffffffffffffffffffffffffff161461078057337f00000000000000000000000000000000000000000000000000000000000000006040517f1cf993f40000000000000000000000000000000000000000000000000000000081526004016107779291906116c3565b60405180910390fd5b61078a8282610d05565b5050565b6000600254905090565b60007f0000000000000000000000000000000000000000000000000000000000000000905090565b60006107da60405180602001604052806000815250610abb565b509050806108495747600080549050600160149054906101000a900460ff16600181111561080b5761080a611057565b5b6040517f3a8d6086000000000000000000000000000000000000000000000000000000008152600401610840939291906116ec565b60405180910390fd5b60018060146101000a81548160ff0219169083600181111561086e5761086d611057565b5b021790555060007f000000000000000000000000000000000000000000000000000000000000000073ffffffffffffffffffffffffffffffffffffffff16635d3b1d307f00000000000000000000000000000000000000000000000000000000000000007f000000000000000000000000000000000000000000000000000000000000000060037f000000000000000000000000000000000000000000000000000000000000000060016040518663ffffffff1660e01b8152600401610938959493929190611777565b6020604051808303816000875af1158015610957573d6000803e3d6000fd5b505050506040513d601f19601f8201168201806040525081019061097b91906117df565b9050807fcd6e45c8998311cab7e9d4385596cac867e20a0587194b954fa3a731c93ce78b60405160405180910390a2505050565b6000600160009054906101000a900473ffffffffffffffffffffffffffffffffffffffff16905090565b6000600161ffff16905090565b60006003905090565b7f000000000000000000000000000000000000000000000000000000000000000073ffffffffffffffffffffffffffffffffffffffff163373ffffffffffffffffffffffffffffffffffffffff1614610a74576040517f51ed287900000000000000000000000000000000000000000000000000000000815260040160405180910390fd5b6000610a8e60405180602001604052806000815250610abb565b5090508015610ab057610aaf604051806020016040528060008152506107c0565b5b816003819055505050565b600060606000806001811115610ad457610ad3611057565b5b600160149054906101000a900460ff166001811115610af657610af5611057565b5b149050600060035460025442610b0c919061183b565b11905060008060008054905011905060008047119050838015610b2c5750825b8015610b355750815b8015610b3e5750805b955050505050915091565b6000600354905090565b60007f0000000000000000000000000000000000000000000000000000000000000000905090565b60008080549050905090565b6000806000805480602002602001604051908101604052809291908181526020018280548015610c0c57602002820191906000526020600020905b8160009054906101000a900473ffffffffffffffffffffffffffffffffffffffff1673ffffffffffffffffffffffffffffffffffffffff1681526020019060010190808311610bc2575b5050505050905060005b8151811015610c8a578373ffffffffffffffffffffffffffffffffffffffff16828281518110610c4957610c4861186f565b5b602002602001015173ffffffffffffffffffffffffffffffffffffffff1603610c7757600192505050610c91565b8080610c829061189e565b915050610c16565b5060009150505b919050565b60007f0000000000000000000000000000000000000000000000000000000000000000905090565b6000808281548110610cd357610cd261186f565b5b9060005260206000200160009054906101000a900473ffffffffffffffffffffffffffffffffffffffff169050919050565b6000808054905082600081518110610d2057610d1f61186f565b5b6020026020010151610d329190611915565b90506000808281548110610d4957610d4861186f565b5b9060005260206000200160009054906101000a900473ffffffffffffffffffffffffffffffffffffffff16905080600160006101000a81548173ffffffffffffffffffffffffffffffffffffffff021916908373ffffffffffffffffffffffffffffffffffffffff16021790555060008173ffffffffffffffffffffffffffffffffffffffff1647604051610ddd9061100e565b60006040518083038185875af1925050503d8060008114610e1a576040519150601f19603f3d011682016040523d82523d6000602084013e610e1f565b606091505b5050905080610e5a576040517fa1d04b3900000000000000000000000000000000000000000000000000000000815260040160405180910390fd5b6000600160146101000a81548160ff02191690836001811115610e8057610e7f611057565b5b0217905550600067ffffffffffffffff811115610ea057610e9f61113f565b5b604051908082528060200260200182016040528015610ece5781602001602082028036833780820191505090505b5060009080519060200190610ee4929190610f36565b50426002819055508173ffffffffffffffffffffffffffffffffffffffff167f5b690ec4a06fe979403046eaeea5b3ce38524683c3001f662c8b5a829632f7df60405160405180910390a25050505050565b828054828255906000526020600020908101928215610faf579160200282015b82811115610fae5782518260006101000a81548173ffffffffffffffffffffffffffffffffffffffff021916908373ffffffffffffffffffffffffffffffffffffffff16021790555091602001919060010190610f56565b5b509050610fbc9190610fc0565b5090565b5b80821115610fd9576000816000905550600101610fc1565b5090565b600081905092915050565b50565b6000610ff8600083610fdd565b915061100382610fe8565b600082019050919050565b600061101982610feb565b9150819050919050565b6000819050919050565b61103681611023565b82525050565b6000602082019050611051600083018461102d565b92915050565b7f4e487b7100000000000000000000000000000000000000000000000000000000600052602160045260246000fd5b6002811061109757611096611057565b5b50565b60008190506110a882611086565b919050565b60006110b88261109a565b9050919050565b6110c8816110ad565b82525050565b60006020820190506110e360008301846110bf565b92915050565b6000604051905090565b600080fd5b600080fd5b61110681611023565b811461111157600080fd5b50565b600081359050611123816110fd565b92915050565b600080fd5b6000601f19601f8301169050919050565b7f4e487b7100000000000000000000000000000000000000000000000000000000600052604160045260246000fd5b6111778261112e565b810181811067ffffffffffffffff821117156111965761119561113f565b5b80604052505050565b60006111a96110e9565b90506111b5828261116e565b919050565b600067ffffffffffffffff8211156111d5576111d461113f565b5b602082029050602081019050919050565b600080fd5b60006111fe6111f9846111ba565b61119f565b90508083825260208201905060208402830185811115611221576112206111e6565b5b835b8181101561124a57806112368882611114565b845260208401935050602081019050611223565b5050509392505050565b600082601f83011261126957611268611129565b5b81356112798482602086016111eb565b91505092915050565b60008060408385031215611299576112986110f3565b5b60006112a785828601611114565b925050602083013567ffffffffffffffff8111156112c8576112c76110f8565b5b6112d485828601611254565b9150509250929050565b600073ffffffffffffffffffffffffffffffffffffffff82169050919050565b6000819050919050565b600061132361131e611319846112de565b6112fe565b6112de565b9050919050565b600061133582611308565b9050919050565b60006113478261132a565b9050919050565b6113578161133c565b82525050565b6000602082019050611372600083018461134e565b92915050565b600080fd5b600067ffffffffffffffff8211156113985761139761113f565b5b6113a18261112e565b9050602081019050919050565b82818337600083830152505050565b60006113d06113cb8461137d565b61119f565b9050828152602081018484840111156113ec576113eb611378565b5b6113f78482856113ae565b509392505050565b600082601f83011261141457611413611129565b5b81356114248482602086016113bd565b91505092915050565b600060208284031215611443576114426110f3565b5b600082013567ffffffffffffffff811115611461576114606110f8565b5b61146d848285016113ff565b91505092915050565b6000611481826112de565b9050919050565b61149181611476565b82525050565b60006020820190506114ac6000830184611488565b92915050565b600061ffff82169050919050565b6114c9816114b2565b82525050565b60006020820190506114e460008301846114c0565b92915050565b600060208284031215611500576114ff6110f3565b5b600061150e84828501611114565b91505092915050565b60008115159050919050565b61152c81611517565b82525050565b600081519050919050565b600082825260208201905092915050565b60005b8381101561156c578082015181840152602081019050611551565b60008484015250505050565b600061158382611532565b61158d818561153d565b935061159d81856020860161154e565b6115a68161112e565b840191505092915050565b60006040820190506115c66000830185611523565b81810360208301526115d88184611578565b90509392505050565b6000819050919050565b6115f4816115e1565b82525050565b600060208201905061160f60008301846115eb565b92915050565b61161e81611476565b811461162957600080fd5b50565b60008135905061163b81611615565b92915050565b600060208284031215611657576116566110f3565b5b60006116658482850161162c565b91505092915050565b60006020820190506116836000830184611523565b92915050565b600063ffffffff82169050919050565b6116a281611689565b82525050565b60006020820190506116bd6000830184611699565b92915050565b60006040820190506116d86000830185611488565b6116e56020830184611488565b9392505050565b6000606082019050611701600083018661102d565b61170e602083018561102d565b61171b604083018461102d565b949350505050565b600067ffffffffffffffff82169050919050565b61174081611723565b82525050565b600061176161175c611757846114b2565b6112fe565b611689565b9050919050565b61177181611746565b82525050565b600060a08201905061178c60008301886115eb565b6117996020830187611737565b6117a660408301866114c0565b6117b36060830185611699565b6117c06080830184611768565b9695505050505050565b6000815190506117d9816110fd565b92915050565b6000602082840312156117f5576117f46110f3565b5b6000611803848285016117ca565b91505092915050565b7f4e487b7100000000000000000000000000000000000000000000000000000000600052601160045260246000fd5b600061184682611023565b915061185183611023565b92508282039050818111156118695761186861180c565b5b92915050565b7f4e487b7100000000000000000000000000000000000000000000000000000000600052603260045260246000fd5b60006118a982611023565b91507fffffffffffffffffffffffffffffffffffffffffffffffffffffffffffffffff82036118db576118da61180c565b5b600182019050919050565b7f4e487b7100000000000000000000000000000000000000000000000000000000600052601260045260246000fd5b600061192082611023565b915061192b83611023565b92508261193b5761193a6118e6565b5b82820690509291505056fea26469706673582212208caa3d857669ee57c6b01479bd7e9e84c28d4b68d4438b91846b43e5125b009f64736f6c63430008110033",
  "devdoc": {
    "kind": "dev",
    "methods": {
      "checkUpkeep(bytes)": {
        "details": "Chainlink automation calls this function and looks for `upkeepNeeded` to return true The following conditions needs to be satisfied for lottery to trigger: 1. Lottery interval should have passed 2. The lottery should have atleast 1 player, and have some ETH 3. Our subscription is funded with LINK 4. The lottery should be in an \"open\" state"
      },
      "enterRaffle()": {
        "details": "A player is added to the lottery in this function 1. The lottery should be in OPEN state to proceed further 2. Ether value should be greater or equal to entraceFee 3. Player is pushed to players array Event is emitted"
      },
      "performUpkeep(bytes)": {
        "details": "performUpKeep is function called by chainlink automation when `upkeepNeeded` is true 1. Again we explicitly run checkUpKeep to now allow others to run the function without passing the conditions 2. The random number is requested by passing required parameters, the process is done in 2 transactions 3. Event is emitted"
      }
    },
    "version": 1
  },
  "userdoc": {
    "kind": "user",
    "methods": {},
    "version": 1
  },
  "storageLayout": {
    "storage": [
      {
        "astId": 244,
        "contract": "contracts/Raffle.sol:Raffle",
        "label": "s_players",
        "offset": 0,
        "slot": "0",
        "type": "t_array(t_address_payable)dyn_storage"
      },
      {
        "astId": 263,
        "contract": "contracts/Raffle.sol:Raffle",
        "label": "s_recentWinner",
        "offset": 0,
        "slot": "1",
        "type": "t_address"
      },
      {
        "astId": 266,
        "contract": "contracts/Raffle.sol:Raffle",
        "label": "s_raffleState",
        "offset": 20,
        "slot": "1",
        "type": "t_enum(RaffleState)239"
      },
      {
        "astId": 268,
        "contract": "contracts/Raffle.sol:Raffle",
        "label": "s_lastTimeStamp",
        "offset": 0,
        "slot": "2",
        "type": "t_uint256"
      },
      {
        "astId": 270,
        "contract": "contracts/Raffle.sol:Raffle",
        "label": "i_interval",
        "offset": 0,
        "slot": "3",
        "type": "t_uint256"
      }
    ],
    "types": {
      "t_address": {
        "encoding": "inplace",
        "label": "address",
        "numberOfBytes": "20"
      },
      "t_address_payable": {
        "encoding": "inplace",
        "label": "address payable",
        "numberOfBytes": "20"
      },
      "t_array(t_address_payable)dyn_storage": {
        "base": "t_address_payable",
        "encoding": "dynamic_array",
        "label": "address payable[]",
        "numberOfBytes": "32"
      },
      "t_enum(RaffleState)239": {
        "encoding": "inplace",
        "label": "enum Raffle.RaffleState",
        "numberOfBytes": "1"
      },
      "t_uint256": {
        "encoding": "inplace",
        "label": "uint256",
        "numberOfBytes": "32"
      }
    }
  }
}