{
  "address": "0xF8e55E1140Afa9D908758a508c6889e0711872eb",
  "abi": [
    {
      "inputs": [
        {
          "internalType": "address",
          "name": "vrfCoordinatorV2",
          "type": "address"
        },
        {
          "internalType": "uint256",
          "name": "entranceFee",
          "type": "uint256"
        },
        {
          "internalType": "bytes32",
          "name": "gasLane",
          "type": "bytes32"
        },
        {
          "internalType": "uint64",
          "name": "subscriptionId",
          "type": "uint64"
        },
        {
          "internalType": "uint32",
          "name": "callbackGasLimit",
          "type": "uint32"
        },
        {
          "internalType": "uint256",
          "name": "interval",
          "type": "uint256"
        }
      ],
      "stateMutability": "nonpayable",
      "type": "constructor"
    },
    {
      "inputs": [
        {
          "internalType": "address",
          "name": "have",
          "type": "address"
        },
        {
          "internalType": "address",
          "name": "want",
          "type": "address"
        }
      ],
      "name": "OnlyCoordinatorCanFulfill",
      "type": "error"
    },
    {
      "inputs": [],
      "name": "Raffle__NotEnoughETH",
      "type": "error"
    },
    {
      "inputs": [],
      "name": "Raffle__NotOpen",
      "type": "error"
    },
    {
      "inputs": [],
      "name": "Raffle__TransferFailed",
      "type": "error"
    },
    {
      "inputs": [
        {
          "internalType": "uint256",
          "name": "currentBalance",
          "type": "uint256"
        },
        {
          "internalType": "uint256",
          "name": "players",
          "type": "uint256"
        },
        {
          "internalType": "uint256",
          "name": "raffleState",
          "type": "uint256"
        }
      ],
      "name": "Raffle__UpKeepNotNeeded",
      "type": "error"
    },
    {
      "anonymous": false,
      "inputs": [
        {
          "indexed": true,
          "internalType": "address",
          "name": "player",
          "type": "address"
        }
      ],
      "name": "RaffleEnter",
      "type": "event"
    },
    {
      "anonymous": false,
      "inputs": [
        {
          "indexed": true,
          "internalType": "uint256",
          "name": "requestId",
          "type": "uint256"
        }
      ],
      "name": "RequestedRaffleWinner",
      "type": "event"
    },
    {
      "anonymous": false,
      "inputs": [
        {
          "indexed": true,
          "internalType": "address",
          "name": "winner",
          "type": "address"
        }
      ],
      "name": "WinnerPicked",
      "type": "event"
    },
    {
      "stateMutability": "payable",
      "type": "fallback"
    },
    {
      "inputs": [
        {
          "internalType": "bytes",
          "name": "",
          "type": "bytes"
        }
      ],
      "name": "checkUpkeep",
      "outputs": [
        {
          "internalType": "bool",
          "name": "upkeepNeeded",
          "type": "bool"
        },
        {
          "internalType": "bytes",
          "name": "performData",
          "type": "bytes"
        }
      ],
      "stateMutability": "view",
      "type": "function"
    },
    {
      "inputs": [],
      "name": "enterRaffle",
      "outputs": [],
      "stateMutability": "payable",
      "type": "function"
    },
    {
      "inputs": [],
      "name": "getCallbackGasLimit",
      "outputs": [
        {
          "internalType": "uint32",
          "name": "",
          "type": "uint32"
        }
      ],
      "stateMutability": "view",
      "type": "function"
    },
    {
      "inputs": [],
      "name": "getEntranceFee",
      "outputs": [
        {
          "internalType": "uint256",
          "name": "",
          "type": "uint256"
        }
      ],
      "stateMutability": "view",
      "type": "function"
    },
    {
      "inputs": [],
      "name": "getGasLane",
      "outputs": [
        {
          "internalType": "bytes32",
          "name": "",
          "type": "bytes32"
        }
      ],
      "stateMutability": "view",
      "type": "function"
    },
    {
      "inputs": [],
      "name": "getInterval",
      "outputs": [
        {
          "internalType": "uint256",
          "name": "",
          "type": "uint256"
        }
      ],
      "stateMutability": "view",
      "type": "function"
    },
    {
      "inputs": [],
      "name": "getLatestTimeStamp",
      "outputs": [
        {
          "internalType": "uint256",
          "name": "",
          "type": "uint256"
        }
      ],
      "stateMutability": "view",
      "type": "function"
    },
    {
      "inputs": [],
      "name": "getNumWords",
      "outputs": [
        {
          "internalType": "uint256",
          "name": "",
          "type": "uint256"
        }
      ],
      "stateMutability": "pure",
      "type": "function"
    },
    {
      "inputs": [
        {
          "internalType": "uint256",
          "name": "index",
          "type": "uint256"
        }
      ],
      "name": "getPlayer",
      "outputs": [
        {
          "internalType": "address",
          "name": "",
          "type": "address"
        }
      ],
      "stateMutability": "view",
      "type": "function"
    },
    {
      "inputs": [],
      "name": "getPlayerCount",
      "outputs": [
        {
          "internalType": "uint256",
          "name": "",
          "type": "uint256"
        }
      ],
      "stateMutability": "view",
      "type": "function"
    },
    {
      "inputs": [],
      "name": "getRaffleState",
      "outputs": [
        {
          "internalType": "enum Raffle.RaffleState",
          "name": "",
          "type": "uint8"
        }
      ],
      "stateMutability": "view",
      "type": "function"
    },
    {
      "inputs": [],
      "name": "getRecentWinner",
      "outputs": [
        {
          "internalType": "address",
          "name": "",
          "type": "address"
        }
      ],
      "stateMutability": "view",
      "type": "function"
    },
    {
      "inputs": [],
      "name": "getRequestConfirmations",
      "outputs": [
        {
          "internalType": "uint16",
          "name": "",
          "type": "uint16"
        }
      ],
      "stateMutability": "pure",
      "type": "function"
    },
    {
      "inputs": [],
      "name": "getVRFCoordinatorV2",
      "outputs": [
        {
          "internalType": "contract VRFCoordinatorV2Interface",
          "name": "",
          "type": "address"
        }
      ],
      "stateMutability": "view",
      "type": "function"
    },
    {
      "inputs": [
        {
          "internalType": "bytes",
          "name": "",
          "type": "bytes"
        }
      ],
      "name": "performUpkeep",
      "outputs": [],
      "stateMutability": "nonpayable",
      "type": "function"
    },
    {
      "inputs": [
        {
          "internalType": "uint256",
          "name": "requestId",
          "type": "uint256"
        },
        {
          "internalType": "uint256[]",
          "name": "randomWords",
          "type": "uint256[]"
        }
      ],
      "name": "rawFulfillRandomWords",
      "outputs": [],
      "stateMutability": "nonpayable",
      "type": "function"
    },
    {
      "stateMutability": "payable",
      "type": "receive"
    }
  ],
  "transactionHash": "0xcaf2f1c312a48ea1e1888e0a5ea78ec4d3a633e5b097e96c9d7a4ca49afcc670",
  "args": [
    "0x2ca8e0c643bde4c2e08ab1fa0da3401adad7734d",
    "10000000000000000",
    "0x79d3d8832d904592c0bf9818b621522c988bb8b0c05cdc3b15aea1b6e8db0c15",
    "7323",
    "500000",
    30
  ],
  "numDeployments": 1,
  "solcInputHash": "b1f1020d7097ed2e35caf58633991091",
  "bytecode": "0x6101606040523480156200001257600080fd5b5060405162001b3238038062001b32833981810160405281019062000038919062000294565b858073ffffffffffffffffffffffffffffffffffffffff1660808173ffffffffffffffffffffffffffffffffffffffff1681525050508460a081815250508573ffffffffffffffffffffffffffffffffffffffff1660c08173ffffffffffffffffffffffffffffffffffffffff16815250508360e081815250508267ffffffffffffffff166101008167ffffffffffffffff16815250508163ffffffff166101208163ffffffff16815250506000600160146101000a81548160ff021916908360018111156200010d576200010c62000330565b5b0217905550426002819055508061014081815250505050505050506200035f565b600080fd5b600073ffffffffffffffffffffffffffffffffffffffff82169050919050565b6000620001608262000133565b9050919050565b620001728162000153565b81146200017e57600080fd5b50565b600081519050620001928162000167565b92915050565b6000819050919050565b620001ad8162000198565b8114620001b957600080fd5b50565b600081519050620001cd81620001a2565b92915050565b6000819050919050565b620001e881620001d3565b8114620001f457600080fd5b50565b6000815190506200020881620001dd565b92915050565b600067ffffffffffffffff82169050919050565b6200022d816200020e565b81146200023957600080fd5b50565b6000815190506200024d8162000222565b92915050565b600063ffffffff82169050919050565b6200026e8162000253565b81146200027a57600080fd5b50565b6000815190506200028e8162000263565b92915050565b60008060008060008060c08789031215620002b457620002b36200012e565b5b6000620002c489828a0162000181565b9650506020620002d789828a01620001bc565b9550506040620002ea89828a01620001f7565b9450506060620002fd89828a016200023c565b93505060806200031089828a016200027d565b92505060a06200032389828a01620001bc565b9150509295509295509295565b7f4e487b7100000000000000000000000000000000000000000000000000000000600052602160045260246000fd5b60805160a05160c05160e05161010051610120516101405161174e620003e4600039600081816109b60152610a2401526000818161087b0152610a80015260006108580152600081816108370152610a4c01526000818161072001526107fb015260008181610513015261061701526000818161065401526106a8015261174e6000f3fe6080604052600436106100f75760003560e01c806353a2c19a1161008a578063c19dd76b11610059578063c19dd76b146103e6578063c2e5220614610411578063de8be8e71461043c578063e55ae4e81461046757610178565b806353a2c19a146103275780635f1b0fd8146103525780636e04ff0d1461037d57806391ad27b4146103bb57610178565b8063320229eb116100c6578063320229eb1461027d57806340293df5146102a85780634585e33b146102d3578063473f1ddc146102fc57610178565b806309bc33a7146101f4578063115cbaf51461021f5780631fe543e31461024a5780632cfcc5391461027357610178565b366101785760003373ffffffffffffffffffffffffffffffffffffffff163460405161012290610df4565b60006040518083038185875af1925050503d806000811461015f576040519150601f19603f3d011682016040523d82523d6000602084013e610164565b606091505b5050905080610176576101756104a4565b5b005b60003373ffffffffffffffffffffffffffffffffffffffff163460405161019e90610df4565b60006040518083038185875af1925050503d80600081146101db576040519150601f19603f3d011682016040523d82523d6000602084013e6101e0565b606091505b50509050806101f2576101f16104a4565b5b005b34801561020057600080fd5b50610209610613565b6040516102169190610e22565b60405180910390f35b34801561022b57600080fd5b5061023461063b565b6040516102419190610eb4565b60405180910390f35b34801561025657600080fd5b50610271600480360381019061026c9190611068565b610652565b005b61027b6104a4565b005b34801561028957600080fd5b50610292610712565b60405161029f9190610e22565b60405180910390f35b3480156102b457600080fd5b506102bd61071c565b6040516102ca9190611143565b60405180910390f35b3480156102df57600080fd5b506102fa60048036038101906102f591906111b9565b610744565b005b34801561030857600080fd5b50610311610934565b60405161031e9190611227565b60405180910390f35b34801561033357600080fd5b5061033c61095e565b6040516103499190610e22565b60405180910390f35b34801561035e57600080fd5b5061036761096b565b604051610374919061125f565b60405180910390f35b34801561038957600080fd5b506103a4600480360381019061039f919061132f565b610974565b6040516103b2929190611412565b60405180910390f35b3480156103c757600080fd5b506103d0610a20565b6040516103dd9190610e22565b60405180910390f35b3480156103f257600080fd5b506103fb610a48565b604051610408919061145b565b60405180910390f35b34801561041d57600080fd5b50610426610a70565b6040516104339190610e22565b60405180910390f35b34801561044857600080fd5b50610451610a7c565b60405161045e9190611495565b60405180910390f35b34801561047357600080fd5b5061048e600480360381019061048991906114b0565b610aa4565b60405161049b9190611227565b60405180910390f35b600060018111156104b8576104b7610e3d565b5b600160149054906101000a900460ff1660018111156104da576104d9610e3d565b5b14610511576040517f1425571c00000000000000000000000000000000000000000000000000000000815260040160405180910390fd5b7f000000000000000000000000000000000000000000000000000000000000000034101561056b576040517f9894879b00000000000000000000000000000000000000000000000000000000815260040160405180910390fd5b6000339080600181540180825580915050600190039060005260206000200160009091909190916101000a81548173ffffffffffffffffffffffffffffffffffffffff021916908373ffffffffffffffffffffffffffffffffffffffff1602179055503373ffffffffffffffffffffffffffffffffffffffff167f0805e1d667bddb8a95f0f09880cf94f403fb596ce79928d9f29b74203ba284d460405160405180910390a2565b60007f0000000000000000000000000000000000000000000000000000000000000000905090565b6000600160149054906101000a900460ff16905090565b7f000000000000000000000000000000000000000000000000000000000000000073ffffffffffffffffffffffffffffffffffffffff163373ffffffffffffffffffffffffffffffffffffffff161461070457337f00000000000000000000000000000000000000000000000000000000000000006040517f1cf993f40000000000000000000000000000000000000000000000000000000081526004016106fb9291906114dd565b60405180910390fd5b61070e8282610aeb565b5050565b6000600254905090565b60007f0000000000000000000000000000000000000000000000000000000000000000905090565b600061075e60405180602001604052806000815250610974565b509050806107cd5747600080549050600160149054906101000a900460ff16600181111561078f5761078e610e3d565b5b6040517f3a8d60860000000000000000000000000000000000000000000000000000000081526004016107c493929190611506565b60405180910390fd5b60018060146101000a81548160ff021916908360018111156107f2576107f1610e3d565b5b021790555060007f000000000000000000000000000000000000000000000000000000000000000073ffffffffffffffffffffffffffffffffffffffff16635d3b1d307f00000000000000000000000000000000000000000000000000000000000000007f000000000000000000000000000000000000000000000000000000000000000060037f000000000000000000000000000000000000000000000000000000000000000060016040518663ffffffff1660e01b81526004016108bc959493929190611591565b6020604051808303816000875af11580156108db573d6000803e3d6000fd5b505050506040513d601f19601f820116820180604052508101906108ff91906115f9565b9050807fcd6e45c8998311cab7e9d4385596cac867e20a0587194b954fa3a731c93ce78b60405160405180910390a250505050565b6000600160009054906101000a900473ffffffffffffffffffffffffffffffffffffffff16905090565b6000600161ffff16905090565b60006003905090565b60006060600080600181111561098d5761098c610e3d565b5b600160149054906101000a900460ff1660018111156109af576109ae610e3d565b5b14905060007f0000000000000000000000000000000000000000000000000000000000000000600254426109e39190611655565b11905060008060008054905011905060008047119050838015610a035750825b8015610a0c5750815b8015610a155750805b955050505050915091565b60007f0000000000000000000000000000000000000000000000000000000000000000905090565b60007f0000000000000000000000000000000000000000000000000000000000000000905090565b60008080549050905090565b60007f0000000000000000000000000000000000000000000000000000000000000000905090565b6000808281548110610ab957610ab8611689565b5b9060005260206000200160009054906101000a900473ffffffffffffffffffffffffffffffffffffffff169050919050565b6000808054905082600081518110610b0657610b05611689565b5b6020026020010151610b1891906116e7565b90506000808281548110610b2f57610b2e611689565b5b9060005260206000200160009054906101000a900473ffffffffffffffffffffffffffffffffffffffff16905080600160006101000a81548173ffffffffffffffffffffffffffffffffffffffff021916908373ffffffffffffffffffffffffffffffffffffffff16021790555060008173ffffffffffffffffffffffffffffffffffffffff1647604051610bc390610df4565b60006040518083038185875af1925050503d8060008114610c00576040519150601f19603f3d011682016040523d82523d6000602084013e610c05565b606091505b5050905080610c40576040517fa1d04b3900000000000000000000000000000000000000000000000000000000815260040160405180910390fd5b6000600160146101000a81548160ff02191690836001811115610c6657610c65610e3d565b5b0217905550600067ffffffffffffffff811115610c8657610c85610f25565b5b604051908082528060200260200182016040528015610cb45781602001602082028036833780820191505090505b5060009080519060200190610cca929190610d1c565b50426002819055508173ffffffffffffffffffffffffffffffffffffffff167f5b690ec4a06fe979403046eaeea5b3ce38524683c3001f662c8b5a829632f7df60405160405180910390a25050505050565b828054828255906000526020600020908101928215610d95579160200282015b82811115610d945782518260006101000a81548173ffffffffffffffffffffffffffffffffffffffff021916908373ffffffffffffffffffffffffffffffffffffffff16021790555091602001919060010190610d3c565b5b509050610da29190610da6565b5090565b5b80821115610dbf576000816000905550600101610da7565b5090565b600081905092915050565b50565b6000610dde600083610dc3565b9150610de982610dce565b600082019050919050565b6000610dff82610dd1565b9150819050919050565b6000819050919050565b610e1c81610e09565b82525050565b6000602082019050610e376000830184610e13565b92915050565b7f4e487b7100000000000000000000000000000000000000000000000000000000600052602160045260246000fd5b60028110610e7d57610e7c610e3d565b5b50565b6000819050610e8e82610e6c565b919050565b6000610e9e82610e80565b9050919050565b610eae81610e93565b82525050565b6000602082019050610ec96000830184610ea5565b92915050565b6000604051905090565b600080fd5b600080fd5b610eec81610e09565b8114610ef757600080fd5b50565b600081359050610f0981610ee3565b92915050565b600080fd5b6000601f19601f8301169050919050565b7f4e487b7100000000000000000000000000000000000000000000000000000000600052604160045260246000fd5b610f5d82610f14565b810181811067ffffffffffffffff82111715610f7c57610f7b610f25565b5b80604052505050565b6000610f8f610ecf565b9050610f9b8282610f54565b919050565b600067ffffffffffffffff821115610fbb57610fba610f25565b5b602082029050602081019050919050565b600080fd5b6000610fe4610fdf84610fa0565b610f85565b9050808382526020820190506020840283018581111561100757611006610fcc565b5b835b81811015611030578061101c8882610efa565b845260208401935050602081019050611009565b5050509392505050565b600082601f83011261104f5761104e610f0f565b5b813561105f848260208601610fd1565b91505092915050565b6000806040838503121561107f5761107e610ed9565b5b600061108d85828601610efa565b925050602083013567ffffffffffffffff8111156110ae576110ad610ede565b5b6110ba8582860161103a565b9150509250929050565b600073ffffffffffffffffffffffffffffffffffffffff82169050919050565b6000819050919050565b60006111096111046110ff846110c4565b6110e4565b6110c4565b9050919050565b600061111b826110ee565b9050919050565b600061112d82611110565b9050919050565b61113d81611122565b82525050565b60006020820190506111586000830184611134565b92915050565b600080fd5b60008083601f84011261117957611178610f0f565b5b8235905067ffffffffffffffff8111156111965761119561115e565b5b6020830191508360018202830111156111b2576111b1610fcc565b5b9250929050565b600080602083850312156111d0576111cf610ed9565b5b600083013567ffffffffffffffff8111156111ee576111ed610ede565b5b6111fa85828601611163565b92509250509250929050565b6000611211826110c4565b9050919050565b61122181611206565b82525050565b600060208201905061123c6000830184611218565b92915050565b600061ffff82169050919050565b61125981611242565b82525050565b60006020820190506112746000830184611250565b92915050565b600080fd5b600067ffffffffffffffff82111561129a57611299610f25565b5b6112a382610f14565b9050602081019050919050565b82818337600083830152505050565b60006112d26112cd8461127f565b610f85565b9050828152602081018484840111156112ee576112ed61127a565b5b6112f98482856112b0565b509392505050565b600082601f83011261131657611315610f0f565b5b81356113268482602086016112bf565b91505092915050565b60006020828403121561134557611344610ed9565b5b600082013567ffffffffffffffff81111561136357611362610ede565b5b61136f84828501611301565b91505092915050565b60008115159050919050565b61138d81611378565b82525050565b600081519050919050565b600082825260208201905092915050565b60005b838110156113cd5780820151818401526020810190506113b2565b60008484015250505050565b60006113e482611393565b6113ee818561139e565b93506113fe8185602086016113af565b61140781610f14565b840191505092915050565b60006040820190506114276000830185611384565b818103602083015261143981846113d9565b90509392505050565b6000819050919050565b61145581611442565b82525050565b6000602082019050611470600083018461144c565b92915050565b600063ffffffff82169050919050565b61148f81611476565b82525050565b60006020820190506114aa6000830184611486565b92915050565b6000602082840312156114c6576114c5610ed9565b5b60006114d484828501610efa565b91505092915050565b60006040820190506114f26000830185611218565b6114ff6020830184611218565b9392505050565b600060608201905061151b6000830186610e13565b6115286020830185610e13565b6115356040830184610e13565b949350505050565b600067ffffffffffffffff82169050919050565b61155a8161153d565b82525050565b600061157b61157661157184611242565b6110e4565b611476565b9050919050565b61158b81611560565b82525050565b600060a0820190506115a6600083018861144c565b6115b36020830187611551565b6115c06040830186611250565b6115cd6060830185611486565b6115da6080830184611582565b9695505050505050565b6000815190506115f381610ee3565b92915050565b60006020828403121561160f5761160e610ed9565b5b600061161d848285016115e4565b91505092915050565b7f4e487b7100000000000000000000000000000000000000000000000000000000600052601160045260246000fd5b600061166082610e09565b915061166b83610e09565b925082820390508181111561168357611682611626565b5b92915050565b7f4e487b7100000000000000000000000000000000000000000000000000000000600052603260045260246000fd5b7f4e487b7100000000000000000000000000000000000000000000000000000000600052601260045260246000fd5b60006116f282610e09565b91506116fd83610e09565b92508261170d5761170c6116b8565b5b82820690509291505056fea26469706673582212207b3ebefafc526d434363b7dc06919e3eb32fcbe74e03b235b53ee7f1a2fa2cde64736f6c63430008110033",
  "devdoc": {
    "kind": "dev",
    "methods": {
      "checkUpkeep(bytes)": {
        "details": "Chainlink automation calls this function and looks for `upkeepNeeded` to return true The following conditions needs to be satisfied for lottery to trigger: 1. Lottery interval should have passed 2. The lottery should have atleast 1 player, and have some ETH 3. Our subscription is funded with LINK 4. The lottery should be in an \"open\" state"
      },
      "enterRaffle()": {
        "details": "A player is added to the lottery in this function 1. The lottery should be in OPEN state to proceed further 2. Ether value should be greater or equal to entraceFee 3. Player is pushed to players array Event is emitted"
      },
      "performUpkeep(bytes)": {
        "details": "performUpKeep is function called by chainlink automation when `upkeepNeeded` is true 1. Again we explicitly run checkUpKeep to now allow others to run the function without passing the conditions 2. The random number is requested by passing required parameters, the process is done in 2 transactions 3. Event is emitted"
      }
    },
    "version": 1
  },
  "userdoc": {
    "kind": "user",
    "methods": {},
    "version": 1
  },
  "storageLayout": {
    "storage": [
      {
        "astId": 240,
        "contract": "contracts/Raffle.sol:Raffle",
        "label": "s_players",
        "offset": 0,
        "slot": "0",
        "type": "t_array(t_address_payable)dyn_storage"
      },
      {
        "astId": 259,
        "contract": "contracts/Raffle.sol:Raffle",
        "label": "s_recentWinner",
        "offset": 0,
        "slot": "1",
        "type": "t_address"
      },
      {
        "astId": 262,
        "contract": "contracts/Raffle.sol:Raffle",
        "label": "s_raffleState",
        "offset": 20,
        "slot": "1",
        "type": "t_enum(RaffleState)237"
      },
      {
        "astId": 264,
        "contract": "contracts/Raffle.sol:Raffle",
        "label": "s_lastTimeStamp",
        "offset": 0,
        "slot": "2",
        "type": "t_uint256"
      }
    ],
    "types": {
      "t_address": {
        "encoding": "inplace",
        "label": "address",
        "numberOfBytes": "20"
      },
      "t_address_payable": {
        "encoding": "inplace",
        "label": "address payable",
        "numberOfBytes": "20"
      },
      "t_array(t_address_payable)dyn_storage": {
        "base": "t_address_payable",
        "encoding": "dynamic_array",
        "label": "address payable[]",
        "numberOfBytes": "32"
      },
      "t_enum(RaffleState)237": {
        "encoding": "inplace",
        "label": "enum Raffle.RaffleState",
        "numberOfBytes": "1"
      },
      "t_uint256": {
        "encoding": "inplace",
        "label": "uint256",
        "numberOfBytes": "32"
      }
    }
  }
}