{
  "address": "0x8D5043cA994F628842c643ecf7355bFbB91e648f",
  "abi": [
    {
      "inputs": [
        {
          "internalType": "address",
          "name": "vrfCoordinatorV2",
          "type": "address"
        },
        {
          "internalType": "uint256",
          "name": "entranceFee",
          "type": "uint256"
        },
        {
          "internalType": "bytes32",
          "name": "gasLane",
          "type": "bytes32"
        },
        {
          "internalType": "uint64",
          "name": "subscriptionId",
          "type": "uint64"
        },
        {
          "internalType": "uint32",
          "name": "callbackGasLimit",
          "type": "uint32"
        },
        {
          "internalType": "uint256",
          "name": "interval",
          "type": "uint256"
        }
      ],
      "stateMutability": "nonpayable",
      "type": "constructor"
    },
    {
      "inputs": [
        {
          "internalType": "address",
          "name": "have",
          "type": "address"
        },
        {
          "internalType": "address",
          "name": "want",
          "type": "address"
        }
      ],
      "name": "OnlyCoordinatorCanFulfill",
      "type": "error"
    },
    {
      "inputs": [],
      "name": "Raffle__NotEnoughETH",
      "type": "error"
    },
    {
      "inputs": [],
      "name": "Raffle__NotOpen",
      "type": "error"
    },
    {
      "inputs": [],
      "name": "Raffle__NotOwner",
      "type": "error"
    },
    {
      "inputs": [],
      "name": "Raffle__TransferFailed",
      "type": "error"
    },
    {
      "inputs": [
        {
          "internalType": "uint256",
          "name": "currentBalance",
          "type": "uint256"
        },
        {
          "internalType": "uint256",
          "name": "players",
          "type": "uint256"
        },
        {
          "internalType": "uint256",
          "name": "raffleState",
          "type": "uint256"
        }
      ],
      "name": "Raffle__UpKeepNotNeeded",
      "type": "error"
    },
    {
      "anonymous": false,
      "inputs": [
        {
          "indexed": true,
          "internalType": "address",
          "name": "player",
          "type": "address"
        }
      ],
      "name": "RaffleEnter",
      "type": "event"
    },
    {
      "anonymous": false,
      "inputs": [
        {
          "indexed": true,
          "internalType": "uint256",
          "name": "requestId",
          "type": "uint256"
        }
      ],
      "name": "RequestedRaffleWinner",
      "type": "event"
    },
    {
      "anonymous": false,
      "inputs": [
        {
          "indexed": true,
          "internalType": "address",
          "name": "winner",
          "type": "address"
        }
      ],
      "name": "WinnerPicked",
      "type": "event"
    },
    {
      "stateMutability": "payable",
      "type": "fallback"
    },
    {
      "inputs": [
        {
          "internalType": "uint256",
          "name": "interval",
          "type": "uint256"
        },
        {
          "internalType": "bool",
          "name": "force",
          "type": "bool"
        }
      ],
      "name": "changeInterval",
      "outputs": [],
      "stateMutability": "nonpayable",
      "type": "function"
    },
    {
      "inputs": [
        {
          "internalType": "bytes",
          "name": "",
          "type": "bytes"
        }
      ],
      "name": "checkUpkeep",
      "outputs": [
        {
          "internalType": "bool",
          "name": "upkeepNeeded",
          "type": "bool"
        },
        {
          "internalType": "bytes",
          "name": "",
          "type": "bytes"
        }
      ],
      "stateMutability": "view",
      "type": "function"
    },
    {
      "inputs": [],
      "name": "enterRaffle",
      "outputs": [],
      "stateMutability": "payable",
      "type": "function"
    },
    {
      "inputs": [],
      "name": "getCallbackGasLimit",
      "outputs": [
        {
          "internalType": "uint32",
          "name": "",
          "type": "uint32"
        }
      ],
      "stateMutability": "view",
      "type": "function"
    },
    {
      "inputs": [],
      "name": "getEntranceFee",
      "outputs": [
        {
          "internalType": "uint256",
          "name": "",
          "type": "uint256"
        }
      ],
      "stateMutability": "view",
      "type": "function"
    },
    {
      "inputs": [],
      "name": "getGasLane",
      "outputs": [
        {
          "internalType": "bytes32",
          "name": "",
          "type": "bytes32"
        }
      ],
      "stateMutability": "view",
      "type": "function"
    },
    {
      "inputs": [],
      "name": "getInterval",
      "outputs": [
        {
          "internalType": "uint256",
          "name": "",
          "type": "uint256"
        }
      ],
      "stateMutability": "view",
      "type": "function"
    },
    {
      "inputs": [],
      "name": "getLatestTimeStamp",
      "outputs": [
        {
          "internalType": "uint256",
          "name": "",
          "type": "uint256"
        }
      ],
      "stateMutability": "view",
      "type": "function"
    },
    {
      "inputs": [],
      "name": "getNextInterval",
      "outputs": [
        {
          "internalType": "uint256",
          "name": "",
          "type": "uint256"
        }
      ],
      "stateMutability": "view",
      "type": "function"
    },
    {
      "inputs": [],
      "name": "getNumWords",
      "outputs": [
        {
          "internalType": "uint256",
          "name": "",
          "type": "uint256"
        }
      ],
      "stateMutability": "pure",
      "type": "function"
    },
    {
      "inputs": [],
      "name": "getOwner",
      "outputs": [
        {
          "internalType": "address",
          "name": "",
          "type": "address"
        }
      ],
      "stateMutability": "view",
      "type": "function"
    },
    {
      "inputs": [
        {
          "internalType": "uint256",
          "name": "index",
          "type": "uint256"
        }
      ],
      "name": "getPlayer",
      "outputs": [
        {
          "internalType": "address",
          "name": "",
          "type": "address"
        }
      ],
      "stateMutability": "view",
      "type": "function"
    },
    {
      "inputs": [],
      "name": "getPlayerCount",
      "outputs": [
        {
          "internalType": "uint256",
          "name": "",
          "type": "uint256"
        }
      ],
      "stateMutability": "view",
      "type": "function"
    },
    {
      "inputs": [],
      "name": "getRaffleState",
      "outputs": [
        {
          "internalType": "enum Raffle.RaffleState",
          "name": "",
          "type": "uint8"
        }
      ],
      "stateMutability": "view",
      "type": "function"
    },
    {
      "inputs": [],
      "name": "getRecentWinner",
      "outputs": [
        {
          "internalType": "address",
          "name": "",
          "type": "address"
        }
      ],
      "stateMutability": "view",
      "type": "function"
    },
    {
      "inputs": [],
      "name": "getRequestConfirmations",
      "outputs": [
        {
          "internalType": "uint16",
          "name": "",
          "type": "uint16"
        }
      ],
      "stateMutability": "pure",
      "type": "function"
    },
    {
      "inputs": [],
      "name": "getVRFCoordinatorV2",
      "outputs": [
        {
          "internalType": "contract VRFCoordinatorV2Interface",
          "name": "",
          "type": "address"
        }
      ],
      "stateMutability": "view",
      "type": "function"
    },
    {
      "inputs": [
        {
          "internalType": "address",
          "name": "player",
          "type": "address"
        }
      ],
      "name": "isPlayerEntered",
      "outputs": [
        {
          "internalType": "bool",
          "name": "",
          "type": "bool"
        }
      ],
      "stateMutability": "view",
      "type": "function"
    },
    {
      "inputs": [
        {
          "internalType": "bytes",
          "name": "",
          "type": "bytes"
        }
      ],
      "name": "performUpkeep",
      "outputs": [],
      "stateMutability": "nonpayable",
      "type": "function"
    },
    {
      "inputs": [
        {
          "internalType": "uint256",
          "name": "requestId",
          "type": "uint256"
        },
        {
          "internalType": "uint256[]",
          "name": "randomWords",
          "type": "uint256[]"
        }
      ],
      "name": "rawFulfillRandomWords",
      "outputs": [],
      "stateMutability": "nonpayable",
      "type": "function"
    },
    {
      "stateMutability": "payable",
      "type": "receive"
    }
  ],
  "transactionHash": "0xfa7a1ef050b41375a2a86c55eb9a655ba5953c7cebfb6f7145c7a405b8bfcb0e",
  "args": [
    "0x2ca8e0c643bde4c2e08ab1fa0da3401adad7734d",
    "10000000000000000",
    "0x79d3d8832d904592c0bf9818b621522c988bb8b0c05cdc3b15aea1b6e8db0c15",
    "7327",
    "500000",
    30
  ],
  "numDeployments": 1,
  "solcInputHash": "6cd6fedd5199c6951b642126b97151c5",
  "bytecode": "0x6101606040523480156200001257600080fd5b5060405162001e9938038062001e998339818101604052810190620000389190620002ce565b858073ffffffffffffffffffffffffffffffffffffffff1660808173ffffffffffffffffffffffffffffffffffffffff1681525050503373ffffffffffffffffffffffffffffffffffffffff1660a08173ffffffffffffffffffffffffffffffffffffffff16815250508460c081815250508573ffffffffffffffffffffffffffffffffffffffff1660e08173ffffffffffffffffffffffffffffffffffffffff16815250508361010081815250508267ffffffffffffffff166101208167ffffffffffffffff16815250508163ffffffff166101408163ffffffff16815250506000600160146101000a81548160ff021916908360018111156200014257620001416200036a565b5b021790555042600281905550806003819055508060048190555050505050505062000399565b600080fd5b600073ffffffffffffffffffffffffffffffffffffffff82169050919050565b60006200019a826200016d565b9050919050565b620001ac816200018d565b8114620001b857600080fd5b50565b600081519050620001cc81620001a1565b92915050565b6000819050919050565b620001e781620001d2565b8114620001f357600080fd5b50565b6000815190506200020781620001dc565b92915050565b6000819050919050565b62000222816200020d565b81146200022e57600080fd5b50565b600081519050620002428162000217565b92915050565b600067ffffffffffffffff82169050919050565b620002678162000248565b81146200027357600080fd5b50565b60008151905062000287816200025c565b92915050565b600063ffffffff82169050919050565b620002a8816200028d565b8114620002b457600080fd5b50565b600081519050620002c8816200029d565b92915050565b60008060008060008060c08789031215620002ee57620002ed62000168565b5b6000620002fe89828a01620001bb565b96505060206200031189828a01620001f6565b95505060406200032489828a0162000231565b94505060606200033789828a0162000276565b93505060806200034a89828a01620002b7565b92505060a06200035d89828a01620001f6565b9150509295509295509295565b7f4e487b7100000000000000000000000000000000000000000000000000000000600052602160045260246000fd5b60805160a05160c05160e051610100516101205161014051611a7b6200041e600039600081816109630152610c620152600061094001526000818161091f0152610b1f01526000818161080801526108e30152600081816105fb01526106ff015260008181610aed0152610ccf01526000818161073c01526107900152611a7b6000f3fe6080604052600436106101235760003560e01c80636e04ff0d116100a0578063d604e29b11610064578063d604e29b14610493578063de8be8e7146104d0578063e55ae4e8146104fb578063f918153214610538578063fbd3f7bd14610561576101a4565b80636e04ff0d146103a9578063893d20e8146103e757806391ad27b414610412578063c19dd76b1461043d578063c2e5220614610468576101a4565b806340293df5116100e757806340293df5146102d45780634585e33b146102ff578063473f1ddc1461032857806353a2c19a146103535780635f1b0fd81461037e576101a4565b806309bc33a714610220578063115cbaf51461024b5780631fe543e3146102765780632cfcc5391461029f578063320229eb146102a9576101a4565b366101a45760003373ffffffffffffffffffffffffffffffffffffffff163460405161014e906110a1565b60006040518083038185875af1925050503d806000811461018b576040519150601f19603f3d011682016040523d82523d6000602084013e610190565b606091505b50509050806101a2576101a161058c565b5b005b60003373ffffffffffffffffffffffffffffffffffffffff16346040516101ca906110a1565b60006040518083038185875af1925050503d8060008114610207576040519150601f19603f3d011682016040523d82523d6000602084013e61020c565b606091505b505090508061021e5761021d61058c565b5b005b34801561022c57600080fd5b506102356106fb565b60405161024291906110cf565b60405180910390f35b34801561025757600080fd5b50610260610723565b60405161026d9190611161565b60405180910390f35b34801561028257600080fd5b5061029d60048036038101906102989190611315565b61073a565b005b6102a761058c565b005b3480156102b557600080fd5b506102be6107fa565b6040516102cb91906110cf565b60405180910390f35b3480156102e057600080fd5b506102e9610804565b6040516102f691906113f0565b60405180910390f35b34801561030b57600080fd5b50610326600480360381019061032191906114c0565b61082c565b005b34801561033457600080fd5b5061033d610a1b565b60405161034a919061152a565b60405180910390f35b34801561035f57600080fd5b50610368610a45565b60405161037591906110cf565b60405180910390f35b34801561038a57600080fd5b50610393610a52565b6040516103a09190611562565b60405180910390f35b3480156103b557600080fd5b506103d060048036038101906103cb91906114c0565b610a5b565b6040516103de929190611617565b60405180910390f35b3480156103f357600080fd5b506103fc610ae9565b604051610409919061152a565b60405180910390f35b34801561041e57600080fd5b50610427610b11565b60405161043491906110cf565b60405180910390f35b34801561044957600080fd5b50610452610b1b565b60405161045f9190611660565b60405180910390f35b34801561047457600080fd5b5061047d610b43565b60405161048a91906110cf565b60405180910390f35b34801561049f57600080fd5b506104ba60048036038101906104b591906116a7565b610b4f565b6040516104c791906116d4565b60405180910390f35b3480156104dc57600080fd5b506104e5610c5e565b6040516104f2919061170e565b60405180910390f35b34801561050757600080fd5b50610522600480360381019061051d9190611729565b610c86565b60405161052f919061152a565b60405180910390f35b34801561054457600080fd5b5061055f600480360381019061055a9190611782565b610ccd565b005b34801561056d57600080fd5b50610576610d85565b60405161058391906110cf565b60405180910390f35b600060018111156105a05761059f6110ea565b5b600160149054906101000a900460ff1660018111156105c2576105c16110ea565b5b146105f9576040517f1425571c00000000000000000000000000000000000000000000000000000000815260040160405180910390fd5b7f0000000000000000000000000000000000000000000000000000000000000000341015610653576040517f9894879b00000000000000000000000000000000000000000000000000000000815260040160405180910390fd5b6000339080600181540180825580915050600190039060005260206000200160009091909190916101000a81548173ffffffffffffffffffffffffffffffffffffffff021916908373ffffffffffffffffffffffffffffffffffffffff1602179055503373ffffffffffffffffffffffffffffffffffffffff167f0805e1d667bddb8a95f0f09880cf94f403fb596ce79928d9f29b74203ba284d460405160405180910390a2565b60007f0000000000000000000000000000000000000000000000000000000000000000905090565b6000600160149054906101000a900460ff16905090565b7f000000000000000000000000000000000000000000000000000000000000000073ffffffffffffffffffffffffffffffffffffffff163373ffffffffffffffffffffffffffffffffffffffff16146107ec57337f00000000000000000000000000000000000000000000000000000000000000006040517f1cf993f40000000000000000000000000000000000000000000000000000000081526004016107e39291906117c2565b60405180910390fd5b6107f68282610d8f565b5050565b6000600254905090565b60007f0000000000000000000000000000000000000000000000000000000000000000905090565b600061084660405180602001604052806000815250610a5b565b509050806108b55747600080549050600160149054906101000a900460ff166001811115610877576108766110ea565b5b6040517f3a8d60860000000000000000000000000000000000000000000000000000000081526004016108ac939291906117eb565b60405180910390fd5b60018060146101000a81548160ff021916908360018111156108da576108d96110ea565b5b021790555060007f000000000000000000000000000000000000000000000000000000000000000073ffffffffffffffffffffffffffffffffffffffff16635d3b1d307f00000000000000000000000000000000000000000000000000000000000000007f000000000000000000000000000000000000000000000000000000000000000060037f000000000000000000000000000000000000000000000000000000000000000060016040518663ffffffff1660e01b81526004016109a4959493929190611876565b6020604051808303816000875af11580156109c3573d6000803e3d6000fd5b505050506040513d601f19601f820116820180604052508101906109e791906118de565b9050807fcd6e45c8998311cab7e9d4385596cac867e20a0587194b954fa3a731c93ce78b60405160405180910390a2505050565b6000600160009054906101000a900473ffffffffffffffffffffffffffffffffffffffff16905090565b6000600161ffff16905090565b60006003905090565b600060606000806001811115610a7457610a736110ea565b5b600160149054906101000a900460ff166001811115610a9657610a956110ea565b5b149050600060035460025442610aac919061193a565b11905060008060008054905011905060008047119050838015610acc5750825b8015610ad55750815b8015610ade5750805b955050505050915091565b60007f0000000000000000000000000000000000000000000000000000000000000000905090565b6000600354905090565b60007f0000000000000000000000000000000000000000000000000000000000000000905090565b60008080549050905090565b6000806000805480602002602001604051908101604052809291908181526020018280548015610bd457602002820191906000526020600020905b8160009054906101000a900473ffffffffffffffffffffffffffffffffffffffff1673ffffffffffffffffffffffffffffffffffffffff1681526020019060010190808311610b8a575b5050505050905060005b8151811015610c52578373ffffffffffffffffffffffffffffffffffffffff16828281518110610c1157610c1061196e565b5b602002602001015173ffffffffffffffffffffffffffffffffffffffff1603610c3f57600192505050610c59565b8080610c4a9061199d565b915050610bde565b5060009150505b919050565b60007f0000000000000000000000000000000000000000000000000000000000000000905090565b6000808281548110610c9b57610c9a61196e565b5b9060005260206000200160009054906101000a900473ffffffffffffffffffffffffffffffffffffffff169050919050565b7f000000000000000000000000000000000000000000000000000000000000000073ffffffffffffffffffffffffffffffffffffffff163373ffffffffffffffffffffffffffffffffffffffff1614610d52576040517f51ed287900000000000000000000000000000000000000000000000000000000815260040160405180910390fd5b60016000805490501080610d635750805b15610d7957816004819055600381905550610d81565b816004819055505b5050565b6000600454905090565b6000808054905082600081518110610daa57610da961196e565b5b6020026020010151610dbc9190611a14565b90506000808281548110610dd357610dd261196e565b5b9060005260206000200160009054906101000a900473ffffffffffffffffffffffffffffffffffffffff16905080600160006101000a81548173ffffffffffffffffffffffffffffffffffffffff021916908373ffffffffffffffffffffffffffffffffffffffff16021790555060008173ffffffffffffffffffffffffffffffffffffffff1647604051610e67906110a1565b60006040518083038185875af1925050503d8060008114610ea4576040519150601f19603f3d011682016040523d82523d6000602084013e610ea9565b606091505b5050905080610ee4576040517fa1d04b3900000000000000000000000000000000000000000000000000000000815260040160405180910390fd5b6000600160146101000a81548160ff02191690836001811115610f0a57610f096110ea565b5b0217905550600067ffffffffffffffff811115610f2a57610f296111d2565b5b604051908082528060200260200182016040528015610f585781602001602082028036833780820191505090505b5060009080519060200190610f6e929190610fc9565b50426002819055506004546003819055508173ffffffffffffffffffffffffffffffffffffffff167f5b690ec4a06fe979403046eaeea5b3ce38524683c3001f662c8b5a829632f7df60405160405180910390a25050505050565b828054828255906000526020600020908101928215611042579160200282015b828111156110415782518260006101000a81548173ffffffffffffffffffffffffffffffffffffffff021916908373ffffffffffffffffffffffffffffffffffffffff16021790555091602001919060010190610fe9565b5b50905061104f9190611053565b5090565b5b8082111561106c576000816000905550600101611054565b5090565b600081905092915050565b50565b600061108b600083611070565b91506110968261107b565b600082019050919050565b60006110ac8261107e565b9150819050919050565b6000819050919050565b6110c9816110b6565b82525050565b60006020820190506110e460008301846110c0565b92915050565b7f4e487b7100000000000000000000000000000000000000000000000000000000600052602160045260246000fd5b6002811061112a576111296110ea565b5b50565b600081905061113b82611119565b919050565b600061114b8261112d565b9050919050565b61115b81611140565b82525050565b60006020820190506111766000830184611152565b92915050565b6000604051905090565b600080fd5b600080fd5b611199816110b6565b81146111a457600080fd5b50565b6000813590506111b681611190565b92915050565b600080fd5b6000601f19601f8301169050919050565b7f4e487b7100000000000000000000000000000000000000000000000000000000600052604160045260246000fd5b61120a826111c1565b810181811067ffffffffffffffff82111715611229576112286111d2565b5b80604052505050565b600061123c61117c565b90506112488282611201565b919050565b600067ffffffffffffffff821115611268576112676111d2565b5b602082029050602081019050919050565b600080fd5b600061129161128c8461124d565b611232565b905080838252602082019050602084028301858111156112b4576112b3611279565b5b835b818110156112dd57806112c988826111a7565b8452602084019350506020810190506112b6565b5050509392505050565b600082601f8301126112fc576112fb6111bc565b5b813561130c84826020860161127e565b91505092915050565b6000806040838503121561132c5761132b611186565b5b600061133a858286016111a7565b925050602083013567ffffffffffffffff81111561135b5761135a61118b565b5b611367858286016112e7565b9150509250929050565b600073ffffffffffffffffffffffffffffffffffffffff82169050919050565b6000819050919050565b60006113b66113b16113ac84611371565b611391565b611371565b9050919050565b60006113c88261139b565b9050919050565b60006113da826113bd565b9050919050565b6113ea816113cf565b82525050565b600060208201905061140560008301846113e1565b92915050565b600080fd5b600067ffffffffffffffff82111561142b5761142a6111d2565b5b611434826111c1565b9050602081019050919050565b82818337600083830152505050565b600061146361145e84611410565b611232565b90508281526020810184848401111561147f5761147e61140b565b5b61148a848285611441565b509392505050565b600082601f8301126114a7576114a66111bc565b5b81356114b7848260208601611450565b91505092915050565b6000602082840312156114d6576114d5611186565b5b600082013567ffffffffffffffff8111156114f4576114f361118b565b5b61150084828501611492565b91505092915050565b600061151482611371565b9050919050565b61152481611509565b82525050565b600060208201905061153f600083018461151b565b92915050565b600061ffff82169050919050565b61155c81611545565b82525050565b60006020820190506115776000830184611553565b92915050565b60008115159050919050565b6115928161157d565b82525050565b600081519050919050565b600082825260208201905092915050565b60005b838110156115d25780820151818401526020810190506115b7565b60008484015250505050565b60006115e982611598565b6115f381856115a3565b93506116038185602086016115b4565b61160c816111c1565b840191505092915050565b600060408201905061162c6000830185611589565b818103602083015261163e81846115de565b90509392505050565b6000819050919050565b61165a81611647565b82525050565b60006020820190506116756000830184611651565b92915050565b61168481611509565b811461168f57600080fd5b50565b6000813590506116a18161167b565b92915050565b6000602082840312156116bd576116bc611186565b5b60006116cb84828501611692565b91505092915050565b60006020820190506116e96000830184611589565b92915050565b600063ffffffff82169050919050565b611708816116ef565b82525050565b600060208201905061172360008301846116ff565b92915050565b60006020828403121561173f5761173e611186565b5b600061174d848285016111a7565b91505092915050565b61175f8161157d565b811461176a57600080fd5b50565b60008135905061177c81611756565b92915050565b6000806040838503121561179957611798611186565b5b60006117a7858286016111a7565b92505060206117b88582860161176d565b9150509250929050565b60006040820190506117d7600083018561151b565b6117e4602083018461151b565b9392505050565b600060608201905061180060008301866110c0565b61180d60208301856110c0565b61181a60408301846110c0565b949350505050565b600067ffffffffffffffff82169050919050565b61183f81611822565b82525050565b600061186061185b61185684611545565b611391565b6116ef565b9050919050565b61187081611845565b82525050565b600060a08201905061188b6000830188611651565b6118986020830187611836565b6118a56040830186611553565b6118b260608301856116ff565b6118bf6080830184611867565b9695505050505050565b6000815190506118d881611190565b92915050565b6000602082840312156118f4576118f3611186565b5b6000611902848285016118c9565b91505092915050565b7f4e487b7100000000000000000000000000000000000000000000000000000000600052601160045260246000fd5b6000611945826110b6565b9150611950836110b6565b92508282039050818111156119685761196761190b565b5b92915050565b7f4e487b7100000000000000000000000000000000000000000000000000000000600052603260045260246000fd5b60006119a8826110b6565b91507fffffffffffffffffffffffffffffffffffffffffffffffffffffffffffffffff82036119da576119d961190b565b5b600182019050919050565b7f4e487b7100000000000000000000000000000000000000000000000000000000600052601260045260246000fd5b6000611a1f826110b6565b9150611a2a836110b6565b925082611a3a57611a396119e5565b5b82820690509291505056fea26469706673582212205c1b3b6804b9f7eb859009eb97331942194112f15f68a9913c65cbc4cc76f5a764736f6c63430008110033",
  "devdoc": {
    "kind": "dev",
    "methods": {
      "checkUpkeep(bytes)": {
        "details": "Chainlink automation calls this function and looks for `upkeepNeeded` to return true The following conditions needs to be satisfied for lottery to trigger: 1. Lottery interval should have passed 2. The lottery should have atleast 1 player, and have some ETH 3. Our subscription is funded with LINK 4. The lottery should be in an \"open\" state"
      },
      "enterRaffle()": {
        "details": "A player is added to the lottery in this function 1. The lottery should be in OPEN state to proceed further 2. Ether value should be greater or equal to entraceFee 3. Player is pushed to players array Event is emitted"
      },
      "performUpkeep(bytes)": {
        "details": "performUpKeep is function called by chainlink automation when `upkeepNeeded` is true 1. Again we explicitly run checkUpKeep to now allow others to run the function without passing the conditions 2. The random number is requested by passing required parameters, the process is done in 2 transactions 3. Event is emitted"
      }
    },
    "version": 1
  },
  "userdoc": {
    "kind": "user",
    "methods": {},
    "version": 1
  },
  "storageLayout": {
    "storage": [
      {
        "astId": 244,
        "contract": "contracts/Raffle.sol:Raffle",
        "label": "s_players",
        "offset": 0,
        "slot": "0",
        "type": "t_array(t_address_payable)dyn_storage"
      },
      {
        "astId": 263,
        "contract": "contracts/Raffle.sol:Raffle",
        "label": "s_recentWinner",
        "offset": 0,
        "slot": "1",
        "type": "t_address"
      },
      {
        "astId": 266,
        "contract": "contracts/Raffle.sol:Raffle",
        "label": "s_raffleState",
        "offset": 20,
        "slot": "1",
        "type": "t_enum(RaffleState)239"
      },
      {
        "astId": 268,
        "contract": "contracts/Raffle.sol:Raffle",
        "label": "s_lastTimeStamp",
        "offset": 0,
        "slot": "2",
        "type": "t_uint256"
      },
      {
        "astId": 270,
        "contract": "contracts/Raffle.sol:Raffle",
        "label": "s_interval",
        "offset": 0,
        "slot": "3",
        "type": "t_uint256"
      },
      {
        "astId": 272,
        "contract": "contracts/Raffle.sol:Raffle",
        "label": "s_new_interval",
        "offset": 0,
        "slot": "4",
        "type": "t_uint256"
      }
    ],
    "types": {
      "t_address": {
        "encoding": "inplace",
        "label": "address",
        "numberOfBytes": "20"
      },
      "t_address_payable": {
        "encoding": "inplace",
        "label": "address payable",
        "numberOfBytes": "20"
      },
      "t_array(t_address_payable)dyn_storage": {
        "base": "t_address_payable",
        "encoding": "dynamic_array",
        "label": "address payable[]",
        "numberOfBytes": "32"
      },
      "t_enum(RaffleState)239": {
        "encoding": "inplace",
        "label": "enum Raffle.RaffleState",
        "numberOfBytes": "1"
      },
      "t_uint256": {
        "encoding": "inplace",
        "label": "uint256",
        "numberOfBytes": "32"
      }
    }
  }
}