{
  "address": "0xa513E6E4b8f2a923D98304ec87F64353C4D5C853",
  "abi": [
    {
      "inputs": [
        {
          "internalType": "address",
          "name": "vrfCoordinatorV2",
          "type": "address"
        },
        {
          "internalType": "uint256",
          "name": "entranceFee",
          "type": "uint256"
        },
        {
          "internalType": "bytes32",
          "name": "gasLane",
          "type": "bytes32"
        },
        {
          "internalType": "uint64",
          "name": "subscriptionId",
          "type": "uint64"
        },
        {
          "internalType": "uint32",
          "name": "callbackGasLimit",
          "type": "uint32"
        },
        {
          "internalType": "uint256",
          "name": "interval",
          "type": "uint256"
        }
      ],
      "stateMutability": "nonpayable",
      "type": "constructor"
    },
    {
      "inputs": [
        {
          "internalType": "address",
          "name": "have",
          "type": "address"
        },
        {
          "internalType": "address",
          "name": "want",
          "type": "address"
        }
      ],
      "name": "OnlyCoordinatorCanFulfill",
      "type": "error"
    },
    {
      "inputs": [],
      "name": "Raffle__NotEnoughETH",
      "type": "error"
    },
    {
      "inputs": [],
      "name": "Raffle__NotOpen",
      "type": "error"
    },
    {
      "inputs": [],
      "name": "Raffle__TransferFailed",
      "type": "error"
    },
    {
      "inputs": [
        {
          "internalType": "uint256",
          "name": "currentBalance",
          "type": "uint256"
        },
        {
          "internalType": "uint256",
          "name": "players",
          "type": "uint256"
        },
        {
          "internalType": "uint256",
          "name": "raffleState",
          "type": "uint256"
        }
      ],
      "name": "Raffle__UpKeepNotNeeded",
      "type": "error"
    },
    {
      "anonymous": false,
      "inputs": [
        {
          "indexed": true,
          "internalType": "address",
          "name": "player",
          "type": "address"
        }
      ],
      "name": "RaffleEnter",
      "type": "event"
    },
    {
      "anonymous": false,
      "inputs": [
        {
          "indexed": true,
          "internalType": "uint256",
          "name": "requestId",
          "type": "uint256"
        }
      ],
      "name": "RequestedRaffleWinner",
      "type": "event"
    },
    {
      "anonymous": false,
      "inputs": [
        {
          "indexed": true,
          "internalType": "address",
          "name": "winner",
          "type": "address"
        }
      ],
      "name": "WinnerPicked",
      "type": "event"
    },
    {
      "inputs": [
        {
          "internalType": "bytes",
          "name": "",
          "type": "bytes"
        }
      ],
      "name": "checkUpkeep",
      "outputs": [
        {
          "internalType": "bool",
          "name": "upkeepNeeded",
          "type": "bool"
        },
        {
          "internalType": "bytes",
          "name": "",
          "type": "bytes"
        }
      ],
      "stateMutability": "nonpayable",
      "type": "function"
    },
    {
      "inputs": [],
      "name": "enterRaffle",
      "outputs": [],
      "stateMutability": "payable",
      "type": "function"
    },
    {
      "inputs": [],
      "name": "getCallbackGasLimit",
      "outputs": [
        {
          "internalType": "uint32",
          "name": "",
          "type": "uint32"
        }
      ],
      "stateMutability": "view",
      "type": "function"
    },
    {
      "inputs": [],
      "name": "getEntranceFee",
      "outputs": [
        {
          "internalType": "uint256",
          "name": "",
          "type": "uint256"
        }
      ],
      "stateMutability": "view",
      "type": "function"
    },
    {
      "inputs": [],
      "name": "getGasLane",
      "outputs": [
        {
          "internalType": "bytes32",
          "name": "",
          "type": "bytes32"
        }
      ],
      "stateMutability": "view",
      "type": "function"
    },
    {
      "inputs": [],
      "name": "getInterval",
      "outputs": [
        {
          "internalType": "uint256",
          "name": "",
          "type": "uint256"
        }
      ],
      "stateMutability": "view",
      "type": "function"
    },
    {
      "inputs": [],
      "name": "getLatestTimeStamp",
      "outputs": [
        {
          "internalType": "uint256",
          "name": "",
          "type": "uint256"
        }
      ],
      "stateMutability": "view",
      "type": "function"
    },
    {
      "inputs": [],
      "name": "getNumWords",
      "outputs": [
        {
          "internalType": "uint256",
          "name": "",
          "type": "uint256"
        }
      ],
      "stateMutability": "pure",
      "type": "function"
    },
    {
      "inputs": [
        {
          "internalType": "uint256",
          "name": "index",
          "type": "uint256"
        }
      ],
      "name": "getPlayer",
      "outputs": [
        {
          "internalType": "address",
          "name": "",
          "type": "address"
        }
      ],
      "stateMutability": "view",
      "type": "function"
    },
    {
      "inputs": [],
      "name": "getPlayerCount",
      "outputs": [
        {
          "internalType": "uint256",
          "name": "",
          "type": "uint256"
        }
      ],
      "stateMutability": "view",
      "type": "function"
    },
    {
      "inputs": [],
      "name": "getRaffleState",
      "outputs": [
        {
          "internalType": "enum Raffle.RaffleState",
          "name": "",
          "type": "uint8"
        }
      ],
      "stateMutability": "view",
      "type": "function"
    },
    {
      "inputs": [],
      "name": "getRecentWinner",
      "outputs": [
        {
          "internalType": "address",
          "name": "",
          "type": "address"
        }
      ],
      "stateMutability": "view",
      "type": "function"
    },
    {
      "inputs": [],
      "name": "getRequestConfirmations",
      "outputs": [
        {
          "internalType": "uint16",
          "name": "",
          "type": "uint16"
        }
      ],
      "stateMutability": "pure",
      "type": "function"
    },
    {
      "inputs": [],
      "name": "getVRFCoordinatorV2",
      "outputs": [
        {
          "internalType": "contract VRFCoordinatorV2Interface",
          "name": "",
          "type": "address"
        }
      ],
      "stateMutability": "view",
      "type": "function"
    },
    {
      "inputs": [
        {
          "internalType": "bytes",
          "name": "",
          "type": "bytes"
        }
      ],
      "name": "performUpkeep",
      "outputs": [],
      "stateMutability": "nonpayable",
      "type": "function"
    },
    {
      "inputs": [
        {
          "internalType": "uint256",
          "name": "requestId",
          "type": "uint256"
        },
        {
          "internalType": "uint256[]",
          "name": "randomWords",
          "type": "uint256[]"
        }
      ],
      "name": "rawFulfillRandomWords",
      "outputs": [],
      "stateMutability": "nonpayable",
      "type": "function"
    }
  ],
  "transactionHash": "0x37ae2e624244403909a81d4f12f92eeba9ee0d853dd8f57d0f5b26816d45545d",
  "args": [
    "0x5FbDB2315678afecb367f032d93F642f64180aa3",
    "10000000000000000",
    "0x79d3d8832d904592c0bf9818b621522c988bb8b0c05cdc3b15aea1b6e8db0c15",
    "2",
    "500000",
    30
  ],
  "numDeployments": 2,
  "solcInputHash": "53a45e8f381e2b8ce8f81241fbf1b721",
  "bytecode": "0x6101606040523480156200001257600080fd5b5060405162001a3638038062001a36833981810160405281019062000038919062000294565b858073ffffffffffffffffffffffffffffffffffffffff1660808173ffffffffffffffffffffffffffffffffffffffff1681525050508460a081815250508573ffffffffffffffffffffffffffffffffffffffff1660c08173ffffffffffffffffffffffffffffffffffffffff16815250508360e081815250508267ffffffffffffffff166101008167ffffffffffffffff16815250508163ffffffff166101208163ffffffff16815250506000600160146101000a81548160ff021916908360018111156200010d576200010c62000330565b5b0217905550426002819055508061014081815250505050505050506200035f565b600080fd5b600073ffffffffffffffffffffffffffffffffffffffff82169050919050565b6000620001608262000133565b9050919050565b620001728162000153565b81146200017e57600080fd5b50565b600081519050620001928162000167565b92915050565b6000819050919050565b620001ad8162000198565b8114620001b957600080fd5b50565b600081519050620001cd81620001a2565b92915050565b6000819050919050565b620001e881620001d3565b8114620001f457600080fd5b50565b6000815190506200020881620001dd565b92915050565b600067ffffffffffffffff82169050919050565b6200022d816200020e565b81146200023957600080fd5b50565b6000815190506200024d8162000222565b92915050565b600063ffffffff82169050919050565b6200026e8162000253565b81146200027a57600080fd5b50565b6000815190506200028e8162000263565b92915050565b60008060008060008060c08789031215620002b457620002b36200012e565b5b6000620002c489828a0162000181565b9650506020620002d789828a01620001bc565b9550506040620002ea89828a01620001f7565b9450506060620002fd89828a016200023c565b93505060806200031089828a016200027d565b92505060a06200032389828a01620001bc565b9150509295509295509295565b7f4e487b7100000000000000000000000000000000000000000000000000000000600052602160045260246000fd5b60805160a05160c05160e051610100516101205161014051611652620003e4600039600081816108ba015261092801526000818161077f01526109840152600061075c01526000818161073b015261095001526000818161062401526106ff0152600081816103ac01526105160152600081816103e9015261043d01526116526000f3fe6080604052600436106100f35760003560e01c806353a2c19a1161008a578063c19dd76b11610059578063c19dd76b146102ea578063c2e5220614610315578063de8be8e714610340578063e55ae4e81461036b576100f3565b806353a2c19a1461022b5780635f1b0fd8146102565780636e04ff0d1461028157806391ad27b4146102bf576100f3565b8063320229eb116100c6578063320229eb1461018157806340293df5146101ac5780634585e33b146101d7578063473f1ddc14610200576100f3565b806309bc33a7146100f8578063115cbaf5146101235780631fe543e31461014e5780632cfcc53914610177575b600080fd5b34801561010457600080fd5b5061010d6103a8565b60405161011a9190610ce0565b60405180910390f35b34801561012f57600080fd5b506101386103d0565b6040516101459190610d72565b60405180910390f35b34801561015a57600080fd5b5061017560048036038101906101709190610f26565b6103e7565b005b61017f6104a7565b005b34801561018d57600080fd5b50610196610616565b6040516101a39190610ce0565b60405180910390f35b3480156101b857600080fd5b506101c1610620565b6040516101ce9190611001565b60405180910390f35b3480156101e357600080fd5b506101fe60048036038101906101f99190611077565b610648565b005b34801561020c57600080fd5b50610215610838565b60405161022291906110e5565b60405180910390f35b34801561023757600080fd5b50610240610862565b60405161024d9190610ce0565b60405180910390f35b34801561026257600080fd5b5061026b61086f565b604051610278919061111d565b60405180910390f35b34801561028d57600080fd5b506102a860048036038101906102a391906111ed565b610878565b6040516102b69291906112d0565b60405180910390f35b3480156102cb57600080fd5b506102d4610924565b6040516102e19190610ce0565b60405180910390f35b3480156102f657600080fd5b506102ff61094c565b60405161030c9190611319565b60405180910390f35b34801561032157600080fd5b5061032a610974565b6040516103379190610ce0565b60405180910390f35b34801561034c57600080fd5b50610355610980565b6040516103629190611353565b60405180910390f35b34801561037757600080fd5b50610392600480360381019061038d919061136e565b6109a8565b60405161039f91906110e5565b60405180910390f35b60007f0000000000000000000000000000000000000000000000000000000000000000905090565b6000600160149054906101000a900460ff16905090565b7f000000000000000000000000000000000000000000000000000000000000000073ffffffffffffffffffffffffffffffffffffffff163373ffffffffffffffffffffffffffffffffffffffff161461049957337f00000000000000000000000000000000000000000000000000000000000000006040517f1cf993f400000000000000000000000000000000000000000000000000000000815260040161049092919061139b565b60405180910390fd5b6104a382826109ef565b5050565b600060018111156104bb576104ba610cfb565b5b600160149054906101000a900460ff1660018111156104dd576104dc610cfb565b5b14610514576040517f1425571c00000000000000000000000000000000000000000000000000000000815260040160405180910390fd5b7f000000000000000000000000000000000000000000000000000000000000000034101561056e576040517f9894879b00000000000000000000000000000000000000000000000000000000815260040160405180910390fd5b6000339080600181540180825580915050600190039060005260206000200160009091909190916101000a81548173ffffffffffffffffffffffffffffffffffffffff021916908373ffffffffffffffffffffffffffffffffffffffff1602179055503373ffffffffffffffffffffffffffffffffffffffff167f0805e1d667bddb8a95f0f09880cf94f403fb596ce79928d9f29b74203ba284d460405160405180910390a2565b6000600254905090565b60007f0000000000000000000000000000000000000000000000000000000000000000905090565b600061066260405180602001604052806000815250610878565b509050806106d15747600080549050600160149054906101000a900460ff16600181111561069357610692610cfb565b5b6040517f3a8d60860000000000000000000000000000000000000000000000000000000081526004016106c8939291906113c4565b60405180910390fd5b60018060146101000a81548160ff021916908360018111156106f6576106f5610cfb565b5b021790555060007f000000000000000000000000000000000000000000000000000000000000000073ffffffffffffffffffffffffffffffffffffffff16635d3b1d307f00000000000000000000000000000000000000000000000000000000000000007f000000000000000000000000000000000000000000000000000000000000000060037f000000000000000000000000000000000000000000000000000000000000000060016040518663ffffffff1660e01b81526004016107c095949392919061144f565b6020604051808303816000875af11580156107df573d6000803e3d6000fd5b505050506040513d601f19601f8201168201806040525081019061080391906114b7565b9050807fcd6e45c8998311cab7e9d4385596cac867e20a0587194b954fa3a731c93ce78b60405160405180910390a250505050565b6000600160009054906101000a900473ffffffffffffffffffffffffffffffffffffffff16905090565b6000600161ffff16905090565b60006003905090565b60006060600080600181111561089157610890610cfb565b5b600160149054906101000a900460ff1660018111156108b3576108b2610cfb565b5b14905060007f0000000000000000000000000000000000000000000000000000000000000000600254426108e79190611513565b119050600080600080549050119050600080471190508380156109075750825b80156109105750815b80156109195750805b955050505050915091565b60007f0000000000000000000000000000000000000000000000000000000000000000905090565b60007f0000000000000000000000000000000000000000000000000000000000000000905090565b60008080549050905090565b60007f0000000000000000000000000000000000000000000000000000000000000000905090565b60008082815481106109bd576109bc611547565b5b9060005260206000200160009054906101000a900473ffffffffffffffffffffffffffffffffffffffff169050919050565b6000808054905082600081518110610a0a57610a09611547565b5b6020026020010151610a1c91906115a5565b90506000808281548110610a3357610a32611547565b5b9060005260206000200160009054906101000a900473ffffffffffffffffffffffffffffffffffffffff16905080600160006101000a81548173ffffffffffffffffffffffffffffffffffffffff021916908373ffffffffffffffffffffffffffffffffffffffff16021790555060008173ffffffffffffffffffffffffffffffffffffffff1647604051610ac790611607565b60006040518083038185875af1925050503d8060008114610b04576040519150601f19603f3d011682016040523d82523d6000602084013e610b09565b606091505b5050905080610b44576040517fa1d04b3900000000000000000000000000000000000000000000000000000000815260040160405180910390fd5b6000600160146101000a81548160ff02191690836001811115610b6a57610b69610cfb565b5b0217905550600067ffffffffffffffff811115610b8a57610b89610de3565b5b604051908082528060200260200182016040528015610bb85781602001602082028036833780820191505090505b5060009080519060200190610bce929190610c20565b50426002819055508173ffffffffffffffffffffffffffffffffffffffff167f5b690ec4a06fe979403046eaeea5b3ce38524683c3001f662c8b5a829632f7df60405160405180910390a25050505050565b828054828255906000526020600020908101928215610c99579160200282015b82811115610c985782518260006101000a81548173ffffffffffffffffffffffffffffffffffffffff021916908373ffffffffffffffffffffffffffffffffffffffff16021790555091602001919060010190610c40565b5b509050610ca69190610caa565b5090565b5b80821115610cc3576000816000905550600101610cab565b5090565b6000819050919050565b610cda81610cc7565b82525050565b6000602082019050610cf56000830184610cd1565b92915050565b7f4e487b7100000000000000000000000000000000000000000000000000000000600052602160045260246000fd5b60028110610d3b57610d3a610cfb565b5b50565b6000819050610d4c82610d2a565b919050565b6000610d5c82610d3e565b9050919050565b610d6c81610d51565b82525050565b6000602082019050610d876000830184610d63565b92915050565b6000604051905090565b600080fd5b600080fd5b610daa81610cc7565b8114610db557600080fd5b50565b600081359050610dc781610da1565b92915050565b600080fd5b6000601f19601f8301169050919050565b7f4e487b7100000000000000000000000000000000000000000000000000000000600052604160045260246000fd5b610e1b82610dd2565b810181811067ffffffffffffffff82111715610e3a57610e39610de3565b5b80604052505050565b6000610e4d610d8d565b9050610e598282610e12565b919050565b600067ffffffffffffffff821115610e7957610e78610de3565b5b602082029050602081019050919050565b600080fd5b6000610ea2610e9d84610e5e565b610e43565b90508083825260208201905060208402830185811115610ec557610ec4610e8a565b5b835b81811015610eee5780610eda8882610db8565b845260208401935050602081019050610ec7565b5050509392505050565b600082601f830112610f0d57610f0c610dcd565b5b8135610f1d848260208601610e8f565b91505092915050565b60008060408385031215610f3d57610f3c610d97565b5b6000610f4b85828601610db8565b925050602083013567ffffffffffffffff811115610f6c57610f6b610d9c565b5b610f7885828601610ef8565b9150509250929050565b600073ffffffffffffffffffffffffffffffffffffffff82169050919050565b6000819050919050565b6000610fc7610fc2610fbd84610f82565b610fa2565b610f82565b9050919050565b6000610fd982610fac565b9050919050565b6000610feb82610fce565b9050919050565b610ffb81610fe0565b82525050565b60006020820190506110166000830184610ff2565b92915050565b600080fd5b60008083601f84011261103757611036610dcd565b5b8235905067ffffffffffffffff8111156110545761105361101c565b5b6020830191508360018202830111156110705761106f610e8a565b5b9250929050565b6000806020838503121561108e5761108d610d97565b5b600083013567ffffffffffffffff8111156110ac576110ab610d9c565b5b6110b885828601611021565b92509250509250929050565b60006110cf82610f82565b9050919050565b6110df816110c4565b82525050565b60006020820190506110fa60008301846110d6565b92915050565b600061ffff82169050919050565b61111781611100565b82525050565b6000602082019050611132600083018461110e565b92915050565b600080fd5b600067ffffffffffffffff82111561115857611157610de3565b5b61116182610dd2565b9050602081019050919050565b82818337600083830152505050565b600061119061118b8461113d565b610e43565b9050828152602081018484840111156111ac576111ab611138565b5b6111b784828561116e565b509392505050565b600082601f8301126111d4576111d3610dcd565b5b81356111e484826020860161117d565b91505092915050565b60006020828403121561120357611202610d97565b5b600082013567ffffffffffffffff81111561122157611220610d9c565b5b61122d848285016111bf565b91505092915050565b60008115159050919050565b61124b81611236565b82525050565b600081519050919050565b600082825260208201905092915050565b60005b8381101561128b578082015181840152602081019050611270565b60008484015250505050565b60006112a282611251565b6112ac818561125c565b93506112bc81856020860161126d565b6112c581610dd2565b840191505092915050565b60006040820190506112e56000830185611242565b81810360208301526112f78184611297565b90509392505050565b6000819050919050565b61131381611300565b82525050565b600060208201905061132e600083018461130a565b92915050565b600063ffffffff82169050919050565b61134d81611334565b82525050565b60006020820190506113686000830184611344565b92915050565b60006020828403121561138457611383610d97565b5b600061139284828501610db8565b91505092915050565b60006040820190506113b060008301856110d6565b6113bd60208301846110d6565b9392505050565b60006060820190506113d96000830186610cd1565b6113e66020830185610cd1565b6113f36040830184610cd1565b949350505050565b600067ffffffffffffffff82169050919050565b611418816113fb565b82525050565b600061143961143461142f84611100565b610fa2565b611334565b9050919050565b6114498161141e565b82525050565b600060a082019050611464600083018861130a565b611471602083018761140f565b61147e604083018661110e565b61148b6060830185611344565b6114986080830184611440565b9695505050505050565b6000815190506114b181610da1565b92915050565b6000602082840312156114cd576114cc610d97565b5b60006114db848285016114a2565b91505092915050565b7f4e487b7100000000000000000000000000000000000000000000000000000000600052601160045260246000fd5b600061151e82610cc7565b915061152983610cc7565b9250828203905081811115611541576115406114e4565b5b92915050565b7f4e487b7100000000000000000000000000000000000000000000000000000000600052603260045260246000fd5b7f4e487b7100000000000000000000000000000000000000000000000000000000600052601260045260246000fd5b60006115b082610cc7565b91506115bb83610cc7565b9250826115cb576115ca611576565b5b828206905092915050565b600081905092915050565b50565b60006115f16000836115d6565b91506115fc826115e1565b600082019050919050565b6000611612826115e4565b915081905091905056fea26469706673582212208e491292ee0f10882197b33aff995e9fcfb8365cdb95e8e24e65443a1913c79264736f6c63430008110033",
  "devdoc": {
    "kind": "dev",
    "methods": {
      "checkUpkeep(bytes)": {
        "details": "Chainlink automation calls this function and looks for `upkeepNeeded` to return true The following conditions needs to be satisfied for lottery to trigger: 1. Lottery interval should have passed 2. The lottery should have atleast 1 player, and have some ETH 3. Our subscription is funded with LINK 4. The lottery should be in an \"open\" state"
      },
      "enterRaffle()": {
        "details": "A player is added to the lottery in this function 1. The lottery should be in OPEN state to proceed further 2. Ether value should be greater or equal to entraceFee 3. Player is pushed to players array Event is emitted"
      },
      "performUpkeep(bytes)": {
        "details": "performUpKeep is function called by chainlink automation when `upkeepNeeded` is true 1. Again we explicitly run checkUpKeep to now allow others to run the function without passing the conditions 2. The random number is requested by passing required parameters, the process is done in 2 transactions 3. Event is emitted"
      }
    },
    "version": 1
  },
  "userdoc": {
    "kind": "user",
    "methods": {},
    "version": 1
  },
  "storageLayout": {
    "storage": [
      {
        "astId": 240,
        "contract": "contracts/Raffle.sol:Raffle",
        "label": "s_players",
        "offset": 0,
        "slot": "0",
        "type": "t_array(t_address_payable)dyn_storage"
      },
      {
        "astId": 259,
        "contract": "contracts/Raffle.sol:Raffle",
        "label": "s_recentWinner",
        "offset": 0,
        "slot": "1",
        "type": "t_address"
      },
      {
        "astId": 262,
        "contract": "contracts/Raffle.sol:Raffle",
        "label": "s_raffleState",
        "offset": 20,
        "slot": "1",
        "type": "t_enum(RaffleState)237"
      },
      {
        "astId": 264,
        "contract": "contracts/Raffle.sol:Raffle",
        "label": "s_lastTimeStamp",
        "offset": 0,
        "slot": "2",
        "type": "t_uint256"
      }
    ],
    "types": {
      "t_address": {
        "encoding": "inplace",
        "label": "address",
        "numberOfBytes": "20"
      },
      "t_address_payable": {
        "encoding": "inplace",
        "label": "address payable",
        "numberOfBytes": "20"
      },
      "t_array(t_address_payable)dyn_storage": {
        "base": "t_address_payable",
        "encoding": "dynamic_array",
        "label": "address payable[]",
        "numberOfBytes": "32"
      },
      "t_enum(RaffleState)237": {
        "encoding": "inplace",
        "label": "enum Raffle.RaffleState",
        "numberOfBytes": "1"
      },
      "t_uint256": {
        "encoding": "inplace",
        "label": "uint256",
        "numberOfBytes": "32"
      }
    }
  }
}